:100000000C942A000C943F000C943F000C943F0089
:100010000C943F000C943F000C943F000C943F0064
:100020000C943F000C943F000C943F000C943F0054
:100030000C943F000C943F000C943F000C943F0044
:100040000C943F000C943F000C943F000C943F0034
:100050000C943F0011241FBECFE5D8E0DEBFCDBF1A
:1000600010E0A0E6B0E0E8EEF2E202C005900D92EA
:10007000A038B107D9F70E9447060C9472110C946E
:100080000000EF92FF920F931F937B018C0120E001
:1000900030E040E05FE40E94ED0388238CF0C8016B
:1000A000B70120E030E040E05FE40E94B9010E9427
:1000B0004D049B01AC01205030404040504806C0E8
:1000C000C801B7010E944D049B01AC01B901CA01EE
:1000D0001F910F91FF90EF900895A0E0B0E0E3E74B
:1000E000F0E00C943B11DC012B01FA019C91923061
:1000F00008F439C1EB018881823008F433C19430AF
:1001000069F4843009F02FC111969C91119789816F
:10011000981709F428C1A7E7B0E025C1843009F495
:1001200021C18230A9F4923009F01DC19A01AD01BC
:1001300088E0EA010990AE01E90109929E0181502F
:10014000C1F7E201898111969C918923818308C1BD
:10015000923009F407C112962D903C901397EB0151
:100160008A819B811496AD90BD90CD90DC901797BD
:10017000EC80FD800E811F819101281B390BB90194
:1001800037FF04C066277727621B730B6032710547
:100190000CF061C0121613066CF537014801062EEB
:1001A00004C096948794779467940A94D2F721E0D8
:1001B00030E040E050E004C0220F331F441F551FC1
:1001C0006A95D2F721503040404050402E213F21C7
:1001D00040235123211531054105510521F021E02E
:1001E00030E040E050E079018A01E628F72808294C
:1001F00019293CC0232BD1F1260E371E35014601AB
:10020000062E04C096948794779467940A94D2F744
:1002100021E030E040E050E004C0220F331F441FD3
:10022000551F6A95D2F721503040404050402A2156
:100230003B214C215D21211531054105510521F05E
:1002400021E030E040E050E059016A01A628B728DB
:10025000C828D9280BC0821593052CF01C01AA24AC
:10026000BB24650103C0EE24FF24870111969C91F5
:10027000D20111968C91981709F445C0992339F051
:10028000A80197012A193B094C095D0906C0A6017E
:1002900095012E193F09400B510B57FD08C01182E3
:1002A0003382228224833583468357831DC081E0B5
:1002B00081833382228288279927DC01821B930B5A
:1002C000A40BB50B84839583A683B7830DC0220F3F
:1002D000331F441F551F24833583468357838281F0
:1002E000938101979383828324813581468157814D
:1002F000DA01C9010197A109B1098F5F9F4FAF4F83
:10030000BF4328F30BC0918333822282EA0CFB1C8B
:100310000C1D1D1DE482F5820683178383E0808314
:10032000248135814681578157FF1AC0C901AA2708
:1003300097FDA095BA2F81709070A070B0705695FF
:10034000479537952795822B932BA42BB52B848328
:100350009583A683B7838281938101969383828359
:10036000DF0101C0D201CD01CDB7DEB7E2E10C94CF
:100370005711A0E2B0E0EFEBF1E00C944711698374
:100380007A838B839C832D833E834F835887E9E058
:10039000EE2EF12CEC0EFD1ECE010196B7010E944F
:1003A00076058E010F5E1F4FCE010596B8010E94A3
:1003B00076058A8991E089278A8BC701B801AE0149
:1003C000475E5F4F0E946D000E94A104A096E6E088
:1003D0000C946311A0E2B0E0E0EFF1E00C9447115F
:1003E00069837A838B839C832D833E834F835887D5
:1003F000F9E0EF2EF12CEC0EFD1ECE010196B701B7
:100400000E9476058E010F5E1F4FCE010596B80142
:100410000E947605C701B801AE01475E5F4F0E949A
:100420006D000E94A104A096E6E00C946311A0E286
:10043000B0E0EDE1F2E00C943B1169837A838B83A9
:100440009C832D833E834F835887CE010196BE0146
:10045000675F7F4F0E947605CE010596BE016F5EF5
:100460007F4F0E9476059985923088F08989823085
:10047000C8F0943019F4823051F404C0843029F467
:10048000923081F487E790E0C6C0923049F420E0D2
:100490009A858A89981321E02A87CE010996BBC0E4
:1004A000823049F420E09A858A89981321E02A8BCA
:1004B000CE014196B0C02D843E844F8458886D880B
:1004C0007E888F88988CEE24FF248701AA24BB2481
:1004D000650140E050E060E070E0E0E0F0E0C10184
:1004E00081709070892BE9F0E60CF71C081D191D2E
:1004F0009A01AB012A0D3B1D4C1D5D1D80E090E073
:10050000A0E0B0E0E614F7040805190520F481E046
:1005100090E0A0E0B0E0BA01A901480F591F6A1F9E
:100520007B1FAA0CBB1CCC1CDD1C97FE08C081E005
:1005300090E0A0E0B0E0A82AB92ACA2ADB2A3196C6
:10054000E032F10549F0660C771C881C991C569422
:10055000479437942794C3CFFA85EA892B893C893D
:100560008B859C85280F391F2E5F3F4F17C0CA010E
:1005700081709070892B61F016950795F794E79438
:1005800080E090E0A0E0B0E8E82AF92A0A2B1B2BD3
:1005900076956795579547952F5F3F4F77FDE7CF46
:1005A0000CC0440F551F661F771F17FD4160EE0CEE
:1005B000FF1C001F111F21503040403090E05907B0
:1005C00090E0690790E4790760F32B8F3C8FDB01A3
:1005D000CA018F779070A070B07080349105A1052A
:1005E000B10561F447FD0AC0E114F10401051105EC
:1005F00029F0405C5F4F6F4F7F4F40781A8EFE1797
:1006000011F081E08A8F4D8F5E8F6F8F78A383E02A
:10061000898FCE0149960E94A104A096E2E10C9434
:100620005711A8E1B0E0E7E1F3E00C9443116983CE
:100630007A838B839C832D833E834F835887B9E0D5
:10064000EB2EF12CEC0EFD1ECE010196B7010E949F
:1006500076058E010F5E1F4FCE010596B8010E94F0
:1006600076052985223008F47EC03989323010F4AD
:10067000B8017CC08A859A8989278A87243011F03D
:10068000223031F4231709F06EC067E770E06EC0C6
:10069000343039F41D861E861F86188A1C861B86F8
:1006A00004C0323021F484E08987B7015FC02B8514
:1006B0003C858B899C89281B390B3C872B87ED84D3
:1006C000FE840F851889AD88BE88CF88D88CEA143F
:1006D000FB040C051D0540F4EE0CFF1C001F111F50
:1006E000215030403C872B8720E030E040E050E054
:1006F00080E090E0A0E0B0E460E070E0EA14FB0489
:100700000C051D0540F0282B392B4A2B5B2BEA18D2
:10071000FB080C091D09B695A79597958795EE0CD2
:10072000FF1C001F111F6F5F7F4F6F31710531F785
:10073000DA01C9018F779070A070B0708034910594
:10074000A105B10561F427FD0AC0E114F10401051A
:10075000110529F0205C3F4F4F4F5F4F20782D87C8
:100760003E874F87588BBE01675F7F4FCB010E944A
:10077000A1046896EAE00C945F11A8E1B0E0E3EC14
:10078000F3E00C94471169837A838B839C832D83D8
:100790003E834F83588789E0E82EF12CEC0EFD1E36
:1007A000CE010196B7010E9476058E010F5E1F4FA4
:1007B000CE010596B8010E9476058985823040F009
:1007C0008989823028F0C701B8010E94EE0501C076
:1007D0008FEF6896E6E00C946311A8E1B0E0E3EFD8
:1007E000F3E00C94471169837A838B839C832D8378
:1007F0003E834F83588789E0E82EF12CEC0EFD1ED6
:10080000CE010196B7010E9476058E010F5E1F4F43
:10081000CE010596B8010E9476058985823040F0A8
:100820008989823028F0C701B8010E94EE0501C015
:100830008FEF6896E6E00C946311A8E1B0E0E3E284
:10084000F4E00C94471169837A838B839C832D8316
:100850003E834F83588789E0E82EF12CEC0EFD1E75
:10086000CE010196B7010E9476058E010F5E1F4FE3
:10087000CE010596B8010E9476058985823040F048
:100880008989823028F0C701B8010E94EE0501C0B5
:1008900081E06896E6E00C946311ACE0B0E0E3E53B
:1008A000F4E00C944B1169837A838B839C83CE0193
:1008B0000196BE016B5F7F4F0E9476058D8182306D
:1008C00061F1823050F1843021F48E81882351F11E
:1008D0002EC02F81388537FD20C06E812F31310524
:1008E0001CF06623F9F023C08EE190E0821B930B8D
:1008F00029853A854B855C8504C056954795379583
:1009000027958A95D2F76623B1F05095409530959A
:1009100021953F4F4F4F5F4F0EC020E030E040E049
:1009200050E009C02FEF3FEF4FEF5FE704C020E03A
:1009300030E040E050E8B901CA012C96E2E00C94A6
:100940006711DF92EF92FF920F931F93FC01E480F7
:10095000F58006811781D1808081823048F480E063
:1009600090E0A0E1B0E0E82AF92A0A2B1B2BA5C0F1
:10097000843009F49FC0823021F4EE24FF248701E3
:1009800005C0E114F1040105110519F4E0E0F0E0FF
:1009900096C0628173819FEF623879070CF05BC06B
:1009A00022E83FEF261B370B2A3131052CF020E0DF
:1009B00030E040E050E02AC0B801A701022E04C098
:1009C00076956795579547950A94D2F781E090E020
:1009D000A0E0B0E004C0880F991FAA1FBB1F2A9592
:1009E000D2F70197A109B1098E219F21A023B1233C
:1009F0000097A105B10521F081E090E0A0E0B0E012
:100A00009A01AB01282B392B4A2B5B2BDA01C90148
:100A10008F779070A070B07080349105A105B105FA
:100A200039F427FF09C0205C3F4F4F4F5F4F04C090
:100A3000215C3F4F4F4F5F4FE0E0F0E02030A0E0FF
:100A40003A07A0E04A07A0E45A0710F0E1E0F0E01E
:100A500079018A0127C06038710564F5FB01E1580E
:100A6000FF4FD801C7018F779070A070B0708034AD
:100A70009105A105B10539F4E7FE0DC080E490E0D1
:100A8000A0E0B0E004C08FE390E0A0E0B0E0E80EAA
:100A9000F91E0A1F1B1F17FF05C016950795F7942F
:100AA000E794319687E016950795F794E7948A9531
:100AB000D1F705C0EE24FF248701EFEFF0E06E2FA1
:100AC000679566276795902F9F77D794DD24D794F5
:100AD0008E2F8695492F462B582F5D29B701CA01C5
:100AE0001F910F91FF90EF90DF900895FC01DB01C3
:100AF000408151812281622F6F7770E0221F22276F
:100B0000221F9381892F880F822B282F30E0991F75
:100B10009927991F11969C93119721153105A9F5D5
:100B2000411551056105710511F482E037C082E875
:100B30009FEF13969C938E9312979A01AB0167E0F7
:100B4000220F331F441F551F6A95D1F783E08C9302
:100B50000DC0220F331F441F551F12968D919C917B
:100B60001397019713969C938E931297203080E0F1
:100B7000380780E0480780E4580758F314962D930F
:100B80003D934D935C93179708952F3F310579F46A
:100B9000411551056105710519F484E08C930895A0
:100BA00064FF03C081E08C9312C01C9210C02F57C9
:100BB000304013963C932E93129783E08C9387E0FA
:100BC000440F551F661F771F8A95D1F770641496DE
:100BD0004D935D936D937C93179708951F93DC015C
:100BE000FB019C91923008F447C08081823008F468
:100BF00043C0943051F411961C91843099F5818151
:100C0000682F70E0611B71093FC0843021F0923081
:100C100031F48230B9F18181882389F12DC0119698
:100C20001C9111978230F1F081811817D9F4129636
:100C30002D913C911397828193818217930794F0B1
:100C400028173907BCF014968D919D910D90BC9199
:100C5000A02D2481358146815781281739074A07FD
:100C60005B0718F4112341F00AC082179307A40709
:100C7000B50740F4112319F061E070E005C06FEF93
:100C80007FEF02C060E070E0CB011F910895DF9319
:100C9000CF93CDB7DEB70E949D0C0E943B0B80E046
:100CA00060E00E94060B80E690E00E94660A67EE14
:100CB00077E080E090E00E948F0A81E060E00E948F
:100CC000060B8AE690E00E94660AFFCFDF93CF937F
:100CD000CDB7DEB7E1970FB6F894DEBF0FBECDBF3C
:100CE00089AB80E061E040E00E94EB0D80E060E0D5
:100CF00040E00E94EB0D89A9982F991F9927991F11
:100D000080E066E0492F0E94EB0D89A982958695C7
:100D100086958370982F917080E065E0492F0E943E
:100D2000EB0D89A9829586958770982F917080E048
:100D300064E0492F0E94EB0D89A982958F70982F4E
:100D4000917080E063E0492F0E94EB0D80E062E04B
:100D500041E00E94EB0D80E090E0A0E8BFE38DA7AA
:100D60009EA7AFA7B8AB6DA57EA58FA598A92BEAC6
:100D70003AEA4AE250E40E941702DC01CB0189A75B
:100D80009AA7ABA7BCA769A57AA58BA59CA520E0CF
:100D900030E040E85FE30E941D0488231CF481E0FA
:100DA00088A791C069A57AA58BA59CA520E030E015
:100DB0004FE753E40E94BD0318160CF07BC06DA5ED
:100DC0007EA58FA598A920E030E04AE754E40E9470
:100DD0001103DC01CB018CA39DA3AEA3BFA36CA127
:100DE0007DA18EA19FA120E030E04AEF54E40E9453
:100DF0001702DC01CB0188A399A3AAA3BBA368A116
:100E000079A18AA19BA120E030E040E85FE30E9445
:100E10001D0488232CF481E090E09F8F8E8F3FC0CB
:100E200068A179A18AA19BA120E03FEF4FE757E499
:100E30000E94BD0318164CF56CA17DA18EA19FA147
:100E400020E030E040E251E40E941702DC01CB01D7
:100E5000BC01CD010E944100DC01CB019F8F8E8F30
:100E60000FC088EC90E09D8F8C8F8C8D9D8D0197AD
:100E7000F1F79D8F8C8F8E8D9F8D01979F8F8E8F19
:100E80008E8D9F8D009769F724C068A179A18AA1F2
:100E90009BA10E944100DC01CB019F8F8E8F8E8D24
:100EA0009F8D9B8F8A8F8A8D9B8D0197F1F79B8FEA
:100EB0008A8F0FC069A57AA58BA59CA50E944100C9
:100EC000DC01CB0188A788A5898F898D8A95F1F7E8
:100ED000898F80E062E040E00E94EB0D89A9869551
:100EE00086958695982F917080E066E0492F0E9444
:100EF000EB0D89A986958695982F917080E065E025
:100F0000492F0E94EB0D89A98695982F917080E05A
:100F100064E0492F0E94EB0D89A9982F917080E021
:100F200063E0492F0E94EB0D80E062E041E00E9407
:100F3000EB0D80E090E0A0E8BFE38D8B9E8BAF8B44
:100F4000B88F6D897E898F89988D2BEA3AEA4AE2BB
:100F500050E40E941702DC01CB01898B9A8BAB8B8A
:100F6000BC8B69897A898B899C8920E030E040E8D4
:100F70005FE30E941D0488231CF481E0888B91C0EC
:100F800069897A898B899C8920E030E04FE753E4B6
:100F90000E94BD0318160CF07BC06D897E898F8975
:100FA000988D20E030E04AE754E40E941103DC0110
:100FB000CB018C879D87AE87BF876C857D858E85AD
:100FC0009F8520E030E04AEF54E40E941702DC01E4
:100FD000CB0188879987AA87BB87688579858A85A9
:100FE0009B8520E030E040E85FE30E941D048823F9
:100FF0002CF481E090E09F838E833FC068857985E3
:101000008A859B8520E03FEF4FE757E40E94BD03B0
:1010100018164CF56C857D858E859F8520E030E027
:1010200040E251E40E941702DC01CB01BC01CD017A
:101030000E944100DC01CB019F838E830FC088ECAE
:1010400090E09D838C838C819D810197F1F79D8336
:101050008C838E819F8101979F838E838E819F8158
:10106000009769F724C0688579858A859B850E94E9
:101070004100DC01CB019F838E838E819F819B8306
:101080008A838A819B810197F1F79B838A830FC0B2
:1010900069897A898B899C890E944100DC01CB0196
:1010A000888B8889898389818A95F1F7898380E093
:1010B00062E040E00E94EB0D80E0E1960FB6F8940C
:1010C000DEBF0FBECDBFCF91DF910895DF93CF93E9
:1010D000CDB7DEB7E1970FB6F894DEBF0FBECDBF38
:1010E00089AB80E061E041E00E94EB0D80E060E0D0
:1010F00040E00E94EB0D89A9982F991F9927991F0D
:1011000080E066E0492F0E94EB0D89A982958695C3
:1011100086958370982F917080E065E0492F0E943A
:10112000EB0D89A9829586958770982F917080E044
:1011300064E0492F0E94EB0D89A982958F70982F4A
:10114000917080E063E0492F0E94EB0D80E062E047
:1011500041E00E94EB0D80E090E0A0E8BFE38DA7A6
:101160009EA7AFA7B8AB6DA57EA58FA598A92BEAC2
:101170003AEA4AE250E40E941702DC01CB0189A757
:101180009AA7ABA7BCA769A57AA58BA59CA520E0CB
:1011900030E040E85FE30E941D0488231CF481E0F6
:1011A00088A791C069A57AA58BA59CA520E030E011
:1011B0004FE753E40E94BD0318160CF07BC06DA5E9
:1011C0007EA58FA598A920E030E04AE754E40E946C
:1011D0001103DC01CB018CA39DA3AEA3BFA36CA123
:1011E0007DA18EA19FA120E030E04AEF54E40E944F
:1011F0001702DC01CB0188A399A3AAA3BBA368A112
:1012000079A18AA19BA120E030E040E85FE30E9441
:101210001D0488232CF481E090E09F8F8E8F3FC0C7
:1012200068A179A18AA19BA120E03FEF4FE757E495
:101230000E94BD0318164CF56CA17DA18EA19FA143
:1012400020E030E040E251E40E941702DC01CB01D3
:10125000BC01CD010E944100DC01CB019F8F8E8F2C
:101260000FC088EC90E09D8F8C8F8C8D9D8D0197A9
:10127000F1F79D8F8C8F8E8D9F8D01979F8F8E8F15
:101280008E8D9F8D009769F724C068A179A18AA1EE
:101290009BA10E944100DC01CB019F8F8E8F8E8D20
:1012A0009F8D9B8F8A8F8A8D9B8D0197F1F79B8FE6
:1012B0008A8F0FC069A57AA58BA59CA50E944100C5
:1012C000DC01CB0188A788A5898F898D8A95F1F7E4
:1012D000898F80E062E040E00E94EB0D89A986954D
:1012E00086958695982F917080E066E0492F0E9440
:1012F000EB0D89A986958695982F917080E065E021
:10130000492F0E94EB0D89A98695982F917080E056
:1013100064E0492F0E94EB0D89A9982F917080E01D
:1013200063E0492F0E94EB0D80E062E041E00E9403
:10133000EB0D80E090E0A0E8BFE38D8B9E8BAF8B40
:10134000B88F6D897E898F89988D2BEA3AEA4AE2B7
:1013500050E40E941702DC01CB01898B9A8BAB8B86
:10136000BC8B69897A898B899C8920E030E040E8D0
:101370005FE30E941D0488231CF481E0888B91C0E8
:1013800069897A898B899C8920E030E04FE753E4B2
:101390000E94BD0318160CF07BC06D897E898F8971
:1013A000988D20E030E04AE754E40E941103DC010C
:1013B000CB018C879D87AE87BF876C857D858E85A9
:1013C0009F8520E030E04AEF54E40E941702DC01E0
:1013D000CB0188879987AA87BB87688579858A85A5
:1013E0009B8520E030E040E85FE30E941D048823F5
:1013F0002CF481E090E09F838E833FC068857985DF
:101400008A859B8520E03FEF4FE757E40E94BD03AC
:1014100018164CF56C857D858E859F8520E030E023
:1014200040E251E40E941702DC01CB01BC01CD0176
:101430000E944100DC01CB019F838E830FC088ECAA
:1014400090E09D838C838C819D810197F1F79D8332
:101450008C838E819F8101979F838E838E819F8154
:10146000009769F724C0688579858A859B850E94E5
:101470004100DC01CB019F838E838E819F819B8302
:101480008A838A819B810197F1F79B838A830FC0AE
:1014900069897A898B899C890E944100DC01CB0192
:1014A000888B8889898389818A95F1F7898380E08F
:1014B00062E040E00E94EB0D80E0E1960FB6F89408
:1014C000DEBF0FBECDBFCF91DF910895DF93CF93E5
:1014D00000D00F92CDB7DEB79B838A830EC089817F
:1014E000282F30E08A819B81FC01E20FF31F80816D
:1014F0000E94660889818F5F89838981282F30E067
:101500008A819B81FC01E20FF31F8081882339F7D8
:1015100080E00F900F900F90CF91DF9108950F937F
:101520001F93DF93CF93CDB7DEB760970FB6F894D4
:10153000DEBF0FBECDBF6D877E878F87988B1A82E7
:1015400019828D859E85AF85B8890097A105B10563
:1015500089F580E30E9466084DC08A81082F10E05B
:101560008D859E85AF85B8892AE030E040E050E067
:10157000BC01CD010E941911DC01CB01282FCE0145
:101580000396FC01E00FF11F20838D859E85AF85BA
:10159000B8892AE030E040E050E0BC01CD010E9473
:1015A0001911DA01C9018D879E87AF87B88B8A81AF
:1015B0008F5F8A838D859E85AF85B8890097A10549
:1015C000B10559F68A818150898311C08981282FFC
:1015D000332727FD3095CE010396FC01E20FF31F60
:1015E0008081805D0E94660889818150898389811C
:1015F000882364F780E060960FB6F894DEBF0FBED4
:10160000CDBFCF91DF911F910F910895DF93CF93BD
:1016100000D000D00F92CDB7DEB789836A838A816C
:101620008832F0F48981282F30E03D832C838C812F
:101630009D81009731F02C813D812130310531F0C1
:101640000AC08A8180580E94660608C08A81805438
:101650000E94660603C031E03B8304C01B8202C0C7
:1016600081E08B838B810F900F900F900F900F90E4
:10167000CF91DF910895DF93CF93CDB7DEB72E974B
:101680000FB6F894DEBF0FBECDBF80E090E0A0EAB9
:10169000B1E48B879C87AD87BE876B857C858D8504
:1016A0009E8520E030E04AEF54E40E941702DC01FE
:1016B000CB018F839887A987BA876F8178858985C1
:1016C0009A8520E030E040E85FE30E941D04882313
:1016D0002CF481E090E09E838D833FC06F817885FC
:1016E00089859A8520E03FEF4FE757E40E94BD03CC
:1016F00018164CF56B857C858D859E8520E030E045
:1017000040E251E40E941702DC01CB01BC01CD0193
:101710000E944100DC01CB019E838D830FC088ECC9
:1017200090E09C838B838B819C810197F1F79C8354
:101730008B838D819E8101979E838D838D819E8178
:10174000009769F714C06F81788589859A850E9412
:101750004100DC01CB019E838D838D819E819A8324
:10176000898389819A810197F1F79A83898383E339
:101770000E94660682E30E94660688E20E94660670
:101780008FE00E94660686E00E94660681E00E9465
:10179000660680E02E960FB6F894DEBF0FBECDBF72
:1017A000CF91DF910895DF93CF93CDB7DEB72E971A
:1017B0000FB6F894DEBF0FBECDBF81E00E94660673
:1017C00080E090E0A0E0B0E48B879C87AD87BE8787
:1017D0006B857C858D859E8520E030E04AEF54E462
:1017E0000E941702DC01CB018F839887A987BA87F3
:1017F0006F81788589859A8520E030E040E85FE355
:101800000E941D0488232CF481E090E09E838D8348
:101810003FC06F81788589859A8520E03FEF4FE74B
:1018200057E40E94BD0318164CF56B857C858D85A9
:101830009E8520E030E040E251E40E941702DC0186
:10184000CB01BC01CD010E944100DC01CB019E8394
:101850008D830FC088EC90E09C838B838B819C816F
:101860000197F1F79C838B838D819E8101979E83E5
:101870008D838D819E81009769F714C06F81788573
:1018800089859A850E944100DC01CB019E838D836E
:101890008D819E819A83898389819A810197F1F74D
:1018A0009A83898380E02E960FB6F894DEBF0FBE30
:1018B000CDBFCF91DF910895DF93CF9300D000D0BB
:1018C0000F92CDB7DEB78A837C836B838B819C813B
:1018D000009741F18A81883028F58A81882F90E02D
:1018E0000896880F991F880F991F880F991F0E94CB
:1018F000660619820EC08981282F30E08B819C8179
:10190000FC01E20FF31F80810E94660889818F5FCE
:1019100089838981883078F380E060E00E94060B3B
:101920001D8202C081E08D838D810F900F900F90FA
:101930000F900F90CF91DF910895DF93CF93CDB7A4
:10194000DEB7EAE3F0E08FEF8083E7E3F0E08FEFCC
:101950008083E4E3F0E083EF8083E1E3F0E0108252
:10196000EBE3F0E01082E8E3F0E01082E5E3F0E082
:1019700083E08083E2E3F0E0108280E0CF91DF91AA
:101980000895DF93CF93CDB7DEB72E970FB6F894B7
:10199000DEBF0FBECDBF8A836B834C8319828A81E1
:1019A000843008F00CC18B81883008F008C18C812C
:1019B000813021F08C81882309F001C18A81282F90
:1019C00030E03E872D878D859E858130910509F415
:1019D0004FC02D853E85223031052CF48D859E85A6
:1019E000009771F0EEC02D853E852230310509F457
:1019F00077C08D859E858330910509F4A9C0E1C02B
:101A00008C81282F30E03C872B878B859C85009725
:101A1000D1F02B853C852130310509F0D2C0AAE3F5
:101A2000B0E0EAE3F0E08081482F8B81282F30E09E
:101A300081E090E0022E02C0880F991F0A94E2F71D
:101A4000842B8C93BEC0AAE3B0E0EAE3F0E080818F
:101A5000482F8B81282F30E081E090E0022E02C0D9
:101A6000880F991F0A94E2F7809584238C93A9C06C
:101A70008C81282F30E03A87298789859A850097BD
:101A8000D1F029853A852130310509F09AC0A7E3C4
:101A9000B0E0E7E3F0E08081482F8B81282F30E031
:101AA00081E090E0022E02C0880F991F0A94E2F7AD
:101AB000842B8C9386C0A7E3B0E0E7E3F0E080815D
:101AC000482F8B81282F30E081E090E0022E02C069
:101AD000880F991F0A94E2F7809584238C9371C034
:101AE0008C81282F30E038872F838F81988500974D
:101AF000D1F02F8138852130310509F062C0A4E38F
:101B0000B0E0E4E3F0E08081482F8B81282F30E0C3
:101B100081E090E0022E02C0880F991F0A94E2F73C
:101B2000842B8C934EC0A4E3B0E0E4E3F0E080812A
:101B3000482F8B81282F30E081E090E0022E02C0F8
:101B4000880F991F0A94E2F7809584238C9339C0FB
:101B50008C81282F30E03E832D838D819E810097DC
:101B6000C9F02D813E812130310559F5A1E3B0E066
:101B7000E1E3F0E08081482F8B81282F30E081E085
:101B800090E0022E02C0880F991F0A94E2F7842B7E
:101B90008C9317C0A1E3B0E0E1E3F0E08081482F2F
:101BA0008B81282F30E081E090E0022E02C0880F68
:101BB000991F0A94E2F7809584238C9302C081E0F8
:101BC000898389812E960FB6F894DEBF0FBECDBFF4
:101BD000CF91DF910895DF93CF93CDB7DEB72E97E6
:101BE0000FB6F894DEBF0FBECDBF8A836B834C83E4
:101BF00019828A81843008F00CC18B81883008F00A
:101C000008C18C81813021F08C81882309F001C1C9
:101C10008A81282F30E03E872D878D859E858130F3
:101C2000910509F44FC02D853E85223031052CF4F5
:101C30008D859E85009771F0EEC02D853E85223002
:101C4000310509F477C08D859E858330910509F4AF
:101C5000A9C0E1C08C81282F30E03C872B878B8581
:101C60009C850097D1F02B853C852130310509F00A
:101C7000D2C0ABE3B0E0EBE3F0E08081482F8B8192
:101C8000282F30E081E090E0022E02C0880F991FDB
:101C90000A94E2F7842B8C93BEC0ABE3B0E0EBE395
:101CA000F0E08081482F8B81282F30E081E090E0A8
:101CB000022E02C0880F991F0A94E2F780958423B0
:101CC0008C93A9C08C81282F30E03A872987898599
:101CD0009A850097D1F029853A852130310509F0A0
:101CE0009AC0A8E3B0E0E8E3F0E08081482F8B8160
:101CF000282F30E081E090E0022E02C0880F991F6B
:101D00000A94E2F7842B8C9386C0A8E3B0E0E8E362
:101D1000F0E08081482F8B81282F30E081E090E037
:101D2000022E02C0880F991F0A94E2F7809584233F
:101D30008C9371C08C81282F30E038872F838F815E
:101D400098850097D1F02F8138852130310509F031
:101D500062C0A5E3B0E0E5E3F0E08081482F8B812D
:101D6000282F30E081E090E0022E02C0880F991FFA
:101D70000A94E2F7842B8C934EC0A5E3B0E0E5E330
:101D8000F0E08081482F8B81282F30E081E090E0C7
:101D9000022E02C0880F991F0A94E2F780958423CF
:101DA0008C9339C08C81282F30E03E832D838D8128
:101DB0009E810097C9F02D813E812130310559F572
:101DC000A2E3B0E0E2E3F0E08081482F8B81282F8E
:101DD00030E081E090E0022E02C0880F991F0A9443
:101DE000E2F7842B8C9317C0A2E3B0E0E2E3F0E0CB
:101DF0008081482F8B81282F30E081E090E0022EF7
:101E000002C0880F991F0A94E2F7809584238C936F
:101E100002C081E0898389812E960FB6F894DEBFD7
:101E20000FBECDBFCF91DF910895DF93CF93CDB794
:101E3000DEB728970FB6F894DEBF0FBECDBF8B83F9
:101E40006C835E834D831A828B81843008F09FC03F
:101E50008C81883008F09BC08D819E81009709F4A9
:101E600096C08B81282F30E038872F834F8158858B
:101E700041305105A9F18F8198858230910534F464
:101E80002F8138852115310571F083C04F81588528
:101E90004230510509F441C08F8198858330910506
:101EA00009F458C076C0E9E3F0E08081282F30E0E3
:101EB0008C81882F90E0A90102C0559547958A959D
:101EC000E2F7CA01817089838981882321F4ED8139
:101ED000FE8110825EC0ED81FE8181E0808359C069
:101EE000E8E3F0E08081282F30E08C81882F90E0BB
:101EF000A90102C0559547958A95E2F7CA018170FC
:101F000089838981882321F4ED81FE81108241C07B
:101F1000ED81FE8181E080833CC0E5E3F0E08081DB
:101F2000282F30E08C81882F90E0A90102C05595C0
:101F300047958A95E2F7CA01817089838981882350
:101F400021F4ED81FE81108224C0ED81FE8181E0CB
:101F500080831FC0E2E3F0E08081282F30E08C8195
:101F6000882F90E0A90102C0559547958A95E2F720
:101F7000CA01817089838981882321F4ED81FE81E2
:101F8000108207C0ED81FE8181E0808302C081E084
:101F90008A838A8128960FB6F894DEBF0FBECDBF24
:101FA000CF91DF910895DF93CF93CDB7DEB72D9713
:101FB0000FB6F894DEBF0FBECDBF8A836B83198244
:101FC0008A81843008F084C08B81813021F08B813C
:101FD000882309F07DC08A81282F30E03D872C8737
:101FE0008C859D858130910571F12C853D85223050
:101FF00031052CF48C859D85009769F06BC02C858C
:102000003D8522303105B1F18C859D858330910568
:1020100009F447C05FC08B81282F30E03B872A87B7
:102020008A859B85009759F02A853B8521303105AB
:1020300009F050C0EAE3F0E08FEF80834BC0EAE3A1
:10204000F0E0108247C08B81282F30E03987288745
:1020500088859985009751F028853985213031058B
:10206000C9F5E7E3F0E08FEF808334C0E7E3F0E009
:10207000108230C08B81282F30E03F832E838E81E9
:102080009F81009751F02E813F812130310511F55C
:10209000E4E3F0E08FEF80831DC0E4E3F0E0108222
:1020A00019C08B81282F30E03D832C838C819D814A
:1020B000009751F02C813D812130310559F4E1E345
:1020C000F0E08FEF808306C0E1E3F0E0108202C011
:1020D00081E0898389812D960FB6F894DEBF0FBE0B
:1020E000CDBFCF91DF910895DF93CF9300D000D083
:1020F0000F92CDB7DEB78A836B8319828A818430D1
:1021000098F58A81282F30E03D832C838C819D8136
:1021100081309105D1F02C813D81223031052CF4A4
:102120008C819D81009761F021C02C813D812230FE
:10213000310581F08C819D818330910581F016C03D
:10214000EBE3F0E08B81808311C0E8E3F0E08B816A
:1021500080830CC0E5E3F0E08B81808307C0E2E37D
:10216000F0E08B81808302C081E0898389810F90B8
:102170000F900F900F900F90CF91DF910895DF9304
:10218000CF9300D000D000D0CDB7DEB78A837C8358
:102190006B8319828A81843008F03FC08B819C81D7
:1021A0000097D9F18A81282F30E03E832D838D81DD
:1021B0009E8181309105E1F02D813E8122303105F3
:1021C0002CF48D819E81009761F029C02D813E8184
:1021D00022303105A1F08D819E8183309105B1F0CF
:1021E0001EC0E9E3F0E08081EB81FC81808317C0B1
:1021F000E6E3F0E08081EB81FC81808310C0E3E3C3
:10220000F0E08081EB81FC81808309C0E0E3F0E0B5
:102210008081EB81FC81808302C081E08983898198
:1022200026960FB6F894DEBF0FBECDBFCF91DF91DB
:102230000895A1E21A2EAA1BBB1BFD010DC0AA1F07
:10224000BB1FEE1FFF1FA217B307E407F50720F01F
:10225000A21BB30BE40BF50B661F771F881F991F9A
:102260001A9469F760957095809590959B01AC01E3
:10227000BD01CF0108952F923F924F925F926F92CE
:102280007F928F929F92AF92BF92CF92DF92EF9206
:10229000FF920F931F93CF93DF93CDB7DEB7CA1B87
:1022A000DB0B0FB6F894DEBF0FBECDBF09942A88B2
:1022B000398848885F846E847D848C849B84AA845A
:1022C000B984C884DF80EE80FD800C811B81AA81E7
:1022D000B981CE0FD11D0FB6F894DEBF0FBECDBFB2
:0822E000ED010895F894FFCF11
:1022E800494545452052415320004D61686D6F7541
:1022F800642053616D7900000000000000000000B8
:00000001FF
