:100000000C942A000C94141C0C94471C0C947A1C1D
:100010000C9447000C9447000C9447000C94470044
:100020000C9447000C9447000C9447000C94470034
:100030000C9447000C9447000C9447000C94470024
:100040000C9447000C9447000C9447000C94470014
:100050000C94470011241FBECFE5D8E0DEBFCDBF12
:1000600011E0A0E6B0E0E2E3F3E402C005900D92F7
:10007000A035B107D9F711E0A0E5B1E001C01D92AC
:10008000A635B107E1F70E94B40C0C9497210C94AB
:100090000000EF92FF920F931F937B018C0120E0F1
:1000A00030E040E05FE40E94F50388238CF0C80153
:1000B000B70120E030E040E05FE40E94C1010E940F
:1000C00055049B01AC01205030404040504806C0D0
:1000D000C801B7010E9455049B01AC01B901CA01D6
:1000E0001F910F91FF90EF900895A0E0B0E0EBE733
:1000F000F0E00C946021DC012B01FA019C9192301C
:1001000008F439C1EB018881823008F433C194309E
:1001100069F4843009F02FC111969C91119789815F
:10012000981709F428C1AFE1B1E025C1843009F482
:1001300021C18230A9F4923009F01DC19A01AD01AC
:1001400088E0EA010990AE01E90109929E0181501F
:10015000C1F7E201898111969C918923818308C1AD
:10016000923009F407C112962D903C901397EB0141
:100170008A819B811496AD90BD90CD90DC901797AD
:10018000EC80FD800E811F819101281B390BB90184
:1001900037FF04C066277727621B730B6032710537
:1001A0000CF061C0121613066CF537014801062EDB
:1001B00004C096948794779467940A94D2F721E0C8
:1001C00030E040E050E004C0220F331F441F551FB1
:1001D0006A95D2F721503040404050402E213F21B7
:1001E00040235123211531054105510521F021E01E
:1001F00030E040E050E079018A01E628F72808293C
:1002000019293CC0232BD1F1260E371E350146019A
:10021000062E04C096948794779467940A94D2F734
:1002200021E030E040E050E004C0220F331F441FC3
:10023000551F6A95D2F721503040404050402A2146
:100240003B214C215D21211531054105510521F04E
:1002500021E030E040E050E059016A01A628B728CB
:10026000C828D9280BC0821593052CF01C01AA249C
:10027000BB24650103C0EE24FF24870111969C91E5
:10028000D20111968C91981709F445C0992339F041
:10029000A80197012A193B094C095D0906C0A6016E
:1002A00095012E193F09400B510B57FD08C01182D3
:1002B0003382228224833583468357831DC081E0A5
:1002C00081833382228288279927DC01821B930B4A
:1002D000A40BB50B84839583A683B7830DC0220F2F
:1002E000331F441F551F24833583468357838281E0
:1002F000938101979383828324813581468157813D
:10030000DA01C9010197A109B1098F5F9F4FAF4F72
:10031000BF4328F30BC0918333822282EA0CFB1C7B
:100320000C1D1D1DE482F5820683178383E0808304
:10033000248135814681578157FF1AC0C901AA27F8
:1003400097FDA095BA2F81709070A070B0705695EF
:10035000479537952795822B932BA42BB52B848318
:100360009583A683B7838281938101969383828349
:10037000DF0101C0D201CD01CDB7DEB7E2E10C94BF
:100380007C21A0E2B0E0E7ECF1E00C946C21698301
:100390007A838B839C832D833E834F835887E9E048
:1003A000EE2EF12CEC0EFD1ECE010196B7010E943F
:1003B0007E058E010F5E1F4FCE010596B8010E948B
:1003C0007E058A8991E089278A8BC701B801AE0131
:1003D000475E5F4F0E9475000E94A904A096E6E068
:1003E0000C948821A0E2B0E0E8EFF1E00C946C21DD
:1003F00069837A838B839C832D833E834F835887C5
:10040000F9E0EF2EF12CEC0EFD1ECE010196B701A6
:100410000E947E058E010F5E1F4FCE010596B8012A
:100420000E947E05C701B801AE01475E5F4F0E9482
:1004300075000E94A904A096E6E00C948821A0E231
:10044000B0E0E5E2F2E00C94602169837A838B836B
:100450009C832D833E834F835887CE010196BE0136
:10046000675F7F4F0E947E05CE010596BE016F5EDD
:100470007F4F0E947E059985923088F0898982306D
:10048000C8F0943019F4823051F404C0843029F457
:10049000923081F48FE191E0C6C0923049F420E0BF
:1004A0009A858A89981321E02A87CE010996BBC0D4
:1004B000823049F420E09A858A89981321E02A8BBA
:1004C000CE014196B0C02D843E844F8458886D88FB
:1004D0007E888F88988CEE24FF248701AA24BB2471
:1004E000650140E050E060E070E0E0E0F0E0C10174
:1004F00081709070892BE9F0E60CF71C081D191D1E
:100500009A01AB012A0D3B1D4C1D5D1D80E090E062
:10051000A0E0B0E0E614F7040805190520F481E036
:1005200090E0A0E0B0E0BA01A901480F591F6A1F8E
:100530007B1FAA0CBB1CCC1CDD1C97FE08C081E0F5
:1005400090E0A0E0B0E0A82AB92ACA2ADB2A3196B6
:10055000E032F10549F0660C771C881C991C569412
:10056000479437942794C3CFFA85EA892B893C892D
:100570008B859C85280F391F2E5F3F4F17C0CA01FE
:1005800081709070892B61F016950795F794E79428
:1005900080E090E0A0E0B0E8E82AF92A0A2B1B2BC3
:1005A00076956795579547952F5F3F4F77FDE7CF36
:1005B0000CC0440F551F661F771F17FD4160EE0CDE
:1005C000FF1C001F111F21503040403090E05907A0
:1005D00090E0690790E4790760F32B8F3C8FDB0193
:1005E000CA018F779070A070B07080349105A1051A
:1005F000B10561F447FD0AC0E114F10401051105DC
:1006000029F0405C5F4F6F4F7F4F40781A8EFE1786
:1006100011F081E08A8F4D8F5E8F6F8F78A383E01A
:10062000898FCE0149960E94A904A096E2E10C941C
:100630007C21A8E1B0E0EFE1F3E00C94682169834C
:100640007A838B839C832D833E834F835887B9E0C5
:10065000EB2EF12CEC0EFD1ECE010196B7010E948F
:100660007E058E010F5E1F4FCE010596B8010E94D8
:100670007E052985223008F47EC03989323010F495
:10068000B8017CC08A859A8989278A87243011F02D
:10069000223031F4231709F06EC06FE171E06EC0B3
:1006A000343039F41D861E861F86188A1C861B86E8
:1006B00004C0323021F484E08987B7015FC02B8504
:1006C0003C858B899C89281B390B3C872B87ED84C3
:1006D000FE840F851889AD88BE88CF88D88CEA142F
:1006E000FB040C051D0540F4EE0CFF1C001F111F40
:1006F000215030403C872B8720E030E040E050E044
:1007000080E090E0A0E0B0E460E070E0EA14FB0478
:100710000C051D0540F0282B392B4A2B5B2BEA18C2
:10072000FB080C091D09B695A79597958795EE0CC2
:10073000FF1C001F111F6F5F7F4F6F31710531F775
:10074000DA01C9018F779070A070B0708034910584
:10075000A105B10561F427FD0AC0E114F10401050A
:10076000110529F0205C3F4F4F4F5F4F20782D87B8
:100770003E874F87588BBE01675F7F4FCB010E943A
:10078000A9046896EAE00C948421A8E1B0E0EBECBF
:10079000F3E00C946C2169837A838B839C832D8393
:1007A0003E834F83588789E0E82EF12CEC0EFD1E26
:1007B000CE010196B7010E947E058E010F5E1F4F8C
:1007C000CE010596B8010E947E058985823040F0F1
:1007D0008989823028F0C701B8010E94F60501C05E
:1007E0008FEF6896E6E00C948821A8E1B0E0EBEF8B
:1007F000F3E00C946C2169837A838B839C832D8333
:100800003E834F83588789E0E82EF12CEC0EFD1EC5
:10081000CE010196B7010E947E058E010F5E1F4F2B
:10082000CE010596B8010E947E058985823040F090
:100830008989823028F0C701B8010E94F60501C0FD
:100840008FEF6896E6E00C948821A8E1B0E0EBE237
:10085000F4E00C946C2169837A838B839C832D83D1
:100860003E834F83588789E0E82EF12CEC0EFD1E65
:10087000CE010196B7010E947E058E010F5E1F4FCB
:10088000CE010596B8010E947E058985823040F030
:100890008989823028F0C701B8010E94F60501C09D
:1008A00081E06896E6E00C948821ACE0B0E0EBE5EE
:1008B000F4E00C94702169837A838B839C83CE014E
:1008C0000196BE016B5F7F4F0E947E058D81823055
:1008D00061F1823050F1843021F48E81882351F10E
:1008E0002EC02F81388537FD20C06E812F31310514
:1008F0001CF06623F9F023C08EE190E0821B930B7D
:1009000029853A854B855C8504C056954795379572
:1009100027958A95D2F76623B1F05095409530958A
:1009200021953F4F4F4F5F4F0EC020E030E040E039
:1009300050E009C02FEF3FEF4FEF5FE704C020E02A
:1009400030E040E050E8B901CA012C96E2E00C9496
:100950008C21DF92EF92FF920F931F93FC01E480B2
:10096000F58006811781D1808081823048F480E053
:1009700090E0A0E1B0E0E82AF92A0A2B1B2BA5C0E1
:10098000843009F49FC0823021F4EE24FF248701D3
:1009900005C0E114F1040105110519F4E0E0F0E0EF
:1009A00096C0628173819FEF623879070CF05BC05B
:1009B00022E83FEF261B370B2A3131052CF020E0CF
:1009C00030E040E050E02AC0B801A701022E04C088
:1009D00076956795579547950A94D2F781E090E010
:1009E000A0E0B0E004C0880F991FAA1FBB1F2A9582
:1009F000D2F70197A109B1098E219F21A023B1232C
:100A00000097A105B10521F081E090E0A0E0B0E001
:100A10009A01AB01282B392B4A2B5B2BDA01C90138
:100A20008F779070A070B07080349105A105B105EA
:100A300039F427FF09C0205C3F4F4F4F5F4F04C080
:100A4000215C3F4F4F4F5F4FE0E0F0E02030A0E0EF
:100A50003A07A0E04A07A0E45A0710F0E1E0F0E00E
:100A600079018A0127C06038710564F5FB01E158FE
:100A7000FF4FD801C7018F779070A070B07080349D
:100A80009105A105B10539F4E7FE0DC080E490E0C1
:100A9000A0E0B0E004C08FE390E0A0E0B0E0E80E9A
:100AA000F91E0A1F1B1F17FF05C016950795F7941F
:100AB000E794319687E016950795F794E7948A9521
:100AC000D1F705C0EE24FF248701EFEFF0E06E2F91
:100AD000679566276795902F9F77D794DD24D794E5
:100AE0008E2F8695492F462B582F5D29B701CA01B5
:100AF0001F910F91FF90EF90DF900895FC01DB01B3
:100B0000408151812281622F6F7770E0221F22275E
:100B1000221F9381892F880F822B282F30E0991F65
:100B20009927991F11969C93119721153105A9F5C5
:100B3000411551056105710511F482E037C082E865
:100B40009FEF13969C938E9312979A01AB0167E0E7
:100B5000220F331F441F551F6A95D1F783E08C93F2
:100B60000DC0220F331F441F551F12968D919C916B
:100B70001397019713969C938E931297203080E0E1
:100B8000380780E0480780E4580758F314962D93FF
:100B90003D934D935C93179708952F3F310579F45A
:100BA000411551056105710519F484E08C93089590
:100BB00064FF03C081E08C9312C01C9210C02F57B9
:100BC000304013963C932E93129783E08C9387E0EA
:100BD000440F551F661F771F8A95D1F770641496CE
:100BE0004D935D936D937C93179708951F93DC014C
:100BF000FB019C91923008F447C08081823008F458
:100C000043C0943051F411961C91843099F5818140
:100C1000682F70E0611B71093FC0843021F0923071
:100C200031F48230B9F18181882389F12DC0119688
:100C30001C9111978230F1F081811817D9F4129626
:100C40002D913C911397828193818217930794F0A1
:100C500028173907BCF014968D919D910D90BC9189
:100C6000A02D2481358146815781281739074A07ED
:100C70005B0718F4112341F00AC082179307A407F9
:100C8000B50740F4112319F061E070E005C06FEF83
:100C90007FEF02C060E070E0CB011F910895DF9309
:100CA000CF93CDB7DEB70E94611780E690E00E9437
:100CB000A01381E060E00E94401481E790E00E9470
:100CC000A013CF91DF910895DF93CF9300D0CDB7DC
:100CD000DEB79A83898389819A810E946E18E9819F
:100CE000FA818081813351F0E981FA8180818233F8
:100CF00029F0E981FA818081833369F70F900F90A1
:100D0000CF91DF910895DF93CF93CDB7DEB70E94E7
:100D1000611781E890E00E94A01381E060E00E94EA
:100D200040148EE890E00E94A013CF91DF910895C7
:100D3000DF93CF9300D000D00F92CDB7DEB79D8365
:100D40008C831B821A8219822BC08981282F30E064
:100D50008C819D81FC01E20FF31F8081813619F1A6
:100D60008A819B819C01220F331FC901880F991F23
:100D7000880F991FA901480F591F8981282F30E03A
:100D80008C819D81FC01E20FF31F8081882F90E010
:100D9000840F951FC0979B838A8389818F5F898386
:100DA0008981833090F28A819B810F900F900F9000
:100DB0000F900F90CF91DF9108950F931F93DF93C2
:100DC000CF93CDB7DEB7CE57D0400FB6F894DEBF85
:100DD0000FBECDBF0E942C180E94741481E061E008
:100DE0000E947E190E94C40CCE0186599F4FEC963A
:100DF0009FAF8EAFEC9789E191E0EE969FAF8EAFFB
:100E0000EE9796E0EF969FAFEF97EE96EEADFFADC3
:100E1000EE970080EE968EAD9FADEE970196EE9622
:100E20009FAF8EAFEE97EC96EEADFFADEC970082E4
:100E3000EC968EAD9FADEC970196EC969FAF8EAF82
:100E4000EC97EF969FADEF979150EF969FAFEF978E
:100E5000EF96EFADEF97EE23C1F6FE01E759FF4F96
:100E60001082FE01E859FF4F1082FE01E959FF4F41
:100E70001082FE01EA59FF4F10828BE990E00E9438
:100E8000A013FE01E15AFF4F80E090E0AAE7B4E42E
:100E900080839183A283B3838E01055A1F4FFE0185
:100EA000E15AFF4F608171818281938120E030E0BF
:100EB0004AE755E40E941F02DC01CB01F801808360
:100EC0009183A283B383FE01E55AFF4F6081718154
:100ED0008281938120E030E040E85FE30E942504B6
:100EE000882344F4FE01E75AFF4F81E090E09183AC
:100EF000808364C0FE01E55AFF4F60817181828169
:100F0000938120E03FEF4FE757E40E94C503181696
:100F10000CF043C0FE01E15AFF4F60817181828174
:100F2000938120E030E040E251E40E941F02DC01A6
:100F3000CB018E01075A1F4FBC01CD010E94490011
:100F4000DC01CB01F801918380831FC0FE01E95AC7
:100F5000FF4F80E991E091838083FE01E95AFF4FC2
:100F6000808191810197F1F7FE01E95AFF4F91834A
:100F70008083DE01A75ABF4FFE01E75AFF4F8081F1
:100F80009181019711969C938E93FE01E75AFF4F32
:100F9000808191810097D1F627C08E01075A1F4F9B
:100FA000FE01E55AFF4F60817181828193810E9429
:100FB0004900DC01CB01F80191838083DE01AB5A4B
:100FC000BF4FFE01E75AFF4F808191818D939C9323
:100FD000FE01EB5AFF4F808191810197F1F7FE01ED
:100FE000EB5AFF4F918380830E9461178AEA90E059
:100FF0000E94A01381E060E00E944014FE01EB58C3
:10100000FF4F1082FE01EA58FF4F1082CE018B582D
:101010009F4F0E946E18FE01EB58FF4F80818F3F5B
:1010200031F18AE20E94A011FE01E759FF4F808151
:10103000282F30E0FE01EB58FF4F4081CE01805950
:101040009F4FFC01E20FF31F4083DE01A759BF4F02
:10105000FE01E759FF4F80818F5F8C93DE01A85915
:10106000BF4FFE01E859FF4F80818F5F8C93FE01D7
:10107000E859FF4F8081853009F6FE01EC59FF4F9A
:10108000118210822CC0FE01EC59FF4F208131816A
:10109000CE0180599F4FFC01E20FF31F4081FE01FA
:1010A000EC59FF4F20813181CE0186599F4FFC01C1
:1010B000E20FF31F8081481731F0FE01EA59FF4F1C
:1010C00081E0808314C0DE01AC59BF4FFE01EC59B2
:1010D000FF4F80819181019611969C938E93FE0122
:1010E000EC59FF4F808191818530910564F2FE01BA
:1010F000EA59FF4F8081882309F4D8C0FE01E759DF
:10110000FF4F1082FE01E859FF4F1082FE01EA599D
:10111000FF4F10820E9461178AEB90E00E94A0139B
:1011200081E060E00E94401489EC90E00E94A013EE
:10113000FE01EF5AFF4F80E090E0AAE7B4E480831D
:101140009183A283B3838E01035B1F4FFE01EF5A8D
:10115000FF4F608171818281938120E030E04AE716
:1011600055E40E941F02DC01CB01F80180839183CA
:10117000A283B383FE01E35BFF4F608171818281B3
:10118000938120E030E040E85FE30E94250488235B
:1011900044F4FE01E55BFF4F81E090E091838083A2
:1011A00064C0FE01E35BFF4F6081718182819381A6
:1011B00020E03FEF4FE757E40E94C50318160CF0FC
:1011C00043C0FE01EF5AFF4F60817181828193819C
:1011D00020E030E040E251E40E941F02DC01CB013C
:1011E0008E01055B1F4FBC01CD010E944900DC014F
:1011F000CB01F801918380831FC0FE01E75BFF4FA5
:1012000080E991E091838083FE01E75BFF4F80815D
:1012100091810197F1F7FE01E75BFF4F9183808396
:10122000DE01A55BBF4FFE01E55BFF4F8081918131
:10123000019711969C938E93FE01E55BFF4F808191
:1012400091810097D1F627C08E01055B1F4FFE01EB
:10125000E35BFF4F60817181828193810E9449002D
:10126000DC01CB01F80191838083DE01A95BBF4FD4
:10127000FE01E55BFF4F808191818D939C93FE0180
:10128000E95BFF4F808191810197F1F7FE01E95BF6
:10129000FF4F918380830E9461178AEA90E00E9449
:1012A000A01381E060E00E944014A8CEFE01E9593D
:1012B000FF4F8081882309F098C00E94611784ED58
:1012C00090E00E94A01381E060E00E9440148FED46
:1012D00090E00E94A013FE01E959FF4F81E0808356
:1012E000FE01ED5BFF4F80E090E0AAE7B4E480836D
:1012F0009183A283B3838E01015C1F4FFE01ED5BDE
:10130000FF4F608171818281938120E030E04AE764
:1013100055E40E941F02DC01CB01F8018083918318
:10132000A283B383FE01FF966081718182819381E4
:1013300020E030E040E85FE30E94250488232CF49D
:1013400081E090E09EAF8DAF46C0FE01FF966081C8
:1013500071818281938120E03FEF4FE757E40E9443
:10136000C503181664F5FE01ED5BFF4F60817181C6
:101370008281938120E030E040E251E40E941F022C
:10138000DC01CB01BC01CD010E944900DC01CB0195
:101390009EAF8DAF0FC080E991E09CAF8BAF8BAD5E
:1013A0009CAD0197F1F79CAF8BAF8DAD9EAD0197D2
:1013B0009EAF8DAF8DAD9EAD009769F716C0FE0153
:1013C000FF9660817181828193810E944900DC01D6
:1013D000CB019EAF8DAF8DAD9EAD9AAF89AF89AD7C
:1013E0009AAD0197F1F79AAF89AF0E944F06CE01EF
:1013F0008A589F4F0E946406FE01EA58FF4F808181
:10140000813331F50E948306CE018A589F4F0E9496
:101410006406FE01EA58FF4F8081813349F480E081
:1014200061E00E94C11981E061E00E94C119E6CD2E
:10143000FE01EA58FF4F8081823309F0DFCD80E062
:1014400060E00E94C11981E060E00E94C119D6CD20
:10145000FE01EA58FF4F8081823309F0E5C10E9406
:10146000611780EF90E00E94A013FE01ED59FF4F3D
:101470001082C4C0CE018B589F4F0E946E18FE018F
:10148000EB58FF4F80818F3F09F49AC0FE01EB5863
:10149000FF4F80818D3309F493C0FE01EB58FF4F5D
:1014A00080810E94A011FE01ED59FF4F8081282FFD
:1014B00030E0FE01EB58FF4F4081CE0189589F4F2D
:1014C000FC01E20FF31F4083DE01AD59BF4FFE0167
:1014D000ED59FF4F80818F5F8C9380E090E0AAEF01
:1014E000B3E48DAB9EABAFABB8AF6DA97EA98FA9AE
:1014F00098AD20E030E04AE755E40E941F02DC018D
:10150000CB0189AB9AABABABBCAB69A97AA98BA970
:101510009CA920E030E040E85FE30E942504882396
:101520002CF481E090E098AB8FA73FC069A97AA91D
:101530008BA99CA920E03FEF4FE757E40E94C50329
:1015400018164CF56DA97EA98FA998AD20E030E062
:1015500040E251E40E941F02DC01CB01BC01CD013D
:101560000E944900DC01CB0198AB8FA70FC080E936
:1015700091E09EA78DA78DA59EA50197F1F79EA747
:101580008DA78FA598A9019798AB8FA78FA598A92C
:10159000009769F733C069A97AA98BA99CA90E9411
:1015A0004900DC01CB0198AB8FA78FA598A99CA718
:1015B0008BA78BA59CA50197F1F79CA78BA71EC0B5
:1015C000FE01EB58FF4F80818D33C1F4FE01ED59D0
:1015D000FF4F8081813031F4FE01E958FF4F81E6F1
:1015E000818313C0FE01ED59FF4F8081823031F4B9
:1015F000FE01E958FF4F81E6828307C0FE01ED59E5
:10160000FF4F8081833009F035CF0E948306CE01E1
:101610008A589F4F0E946406FE01EA58FF4F80815E
:10162000813309F07DC0CE0189589F4F0E949806F2
:101630009C0181E0B9010E94F40C80E090E0AAE7EF
:10164000B4E48FA398A7A9A7BAA76FA178A589A585
:101650009AA520E030E04AE755E40E941F02DC0131
:10166000CB018BA39CA3ADA3BEA36BA17CA18DA139
:101670009EA120E030E040E85FE30E94250488233B
:101680002CF481E090E09AA389A33FC06BA17CA1D8
:101690008DA19EA120E03FEF4FE757E40E94C503D4
:1016A00018164CF56FA178A589A59AA520E030E021
:1016B00040E251E40E941F02DC01CB01BC01CD01DC
:1016C0000E944900DC01CB019AA389A30FC080E9E5
:1016D00091E098A38F8F8F8D98A10197F1F798A330
:1016E0008F8F89A19AA101979AA389A389A19AA111
:1016F000009769F783CC6BA17CA18DA19EA10E946C
:101700004900DC01CB019AA389A389A19AA19E8FEC
:101710008D8F8D8D9E8D0197F1F79E8F8D8F6ECC65
:10172000FE01EA58FF4F8081823309F067CCCE0179
:1017300089589F4F0E9498069C0180E0B9010E9441
:10174000F40C80E090E0AAE7B4E4898F9A8FAB8F25
:10175000BC8F698D7A8D8B8D9C8D20E030E04AE7BF
:1017600055E40E941F02DC01CB018D8B9E8BAF8B59
:10177000B88F6D897E898F89988D20E030E040E8B0
:101780005FE30E94250488232CF481E090E09C8B89
:101790008B8B3FC06D897E898F89988D20E03FEFCC
:1017A0004FE757E40E94C50318164CF5698D7A8DF2
:1017B0008B8D9C8D20E030E040E251E40E941F02BE
:1017C000DC01CB01BC01CD010E944900DC01CB0151
:1017D0009C8B8B8B0FC080E991E09A8B898B8989D8
:1017E0009A890197F1F79A8B898B8B899C8901974C
:1017F0009C8B8B8B8B899C89009769F7FFCB6D89BC
:101800007E898F89988D0E944900DC01CB019C8BD9
:101810008B8B8B899C89988B8F878F859889019773
:10182000F1F7988B8F87EACBFE01EA58FF4F808152
:10183000833309F0E3CB0E9461178DEF90E00E94A3
:10184000A01381E060E00E94401489E091E00E94D2
:10185000A01380E090E0AAE7B4E48B879C87AD8773
:10186000BE876B857C858D859E8520E030E04AE7CC
:1018700055E40E941F02DC01CB018F839887A98762
:10188000BA876F81788589859A8520E030E040E8C5
:101890005FE30E94250488232CF481E090E09E837E
:1018A0008D833FC06F81788589859A8520E03FEFE1
:1018B0004FE757E40E94C50318164CF56B857C85ED
:1018C0008D859E8520E030E040E251E40E941F02B9
:1018D000DC01CB01BC01CD010E944900DC01CB0140
:1018E0009E838D830FC080E991E09C838B838B81E5
:1018F0009C810197F1F79C838B838D819E81019759
:101900009E838D838D819E81009769F714C06F81BE
:10191000788589859A850E944900DC01CB019E83E8
:101920008D838D819E819A83898389819A81019794
:10193000F1F79A8389830E94611780E00E94491A17
:1019400081E00E94491A81E060E070E00E94F40C9E
:10195000C258DF4F0FB6F894DEBF0FBECDBFCF9198
:10196000DF911F910F910895DF93CF93CDB7DEB72D
:101970000E946A1A80E063E00E94881A8DED96E06A
:1019800060E00E94EC1BFFCFDF93CF93CDB7DEB7B3
:1019900081E060E041E00E94D21C81E061E041E032
:1019A0000E94D21C81E062E041E00E94D21C81E0F2
:1019B00063E041E00E94D21C81E060E040E00E94D0
:1019C000FC1D81E061E040E00E94FC1D81E062E0DE
:1019D00040E00E94FC1D81E063E040E00E94FC1DAD
:1019E00081E0CF91DF910895DF93CF93CDB7DEB73C
:1019F000A5970FB6F894DEBF0FBECDBF8BA37DA316
:101A00006CA381E08AA38BA1813021F08BA1882374
:101A100009F0A5C18CA19DA121E08936920708F0AB
:101A20009EC18FE089A38CA19DA12AE530E0B90178
:101A30000E942A21CB0198A38F8F8BA1813009F0BE
:101A4000C5C01E8EB9C08E8D882F90E09C0123707A
:101A5000307083E090E0022E02C0880F991F0A9434
:101A6000E2F7982F89A1892389A38E8D882F90E092
:101A7000837090708330910511F489E089A389A166
:101A8000982F917081E063E0492F0E94FC1D89A18D
:101A90008695982F917081E062E0492F0E94FC1D8D
:101AA00089A186958695982F917081E061E0492FF4
:101AB0000E94FC1D89A1869586958695982F917028
:101AC00081E060E0492F0E94FC1D80E090E0AAEFD9
:101AD000B2E4898F9A8FAB8FBC8F698D7A8D8B8D95
:101AE0009C8D20E030E04AE755E40E941F02DC01B3
:101AF000CB018D8B9E8BAF8BB88F6D897E898F8943
:101B0000988D20E030E040E85FE30E9425048823C0
:101B10002CF481E090E09C8B8B8B3FC06D897E899B
:101B20008F89988D20E03FEF4FE757E40E94C5036F
:101B300018164CF5698D7A8D8B8D9C8D20E030E0E8
:101B400040E251E40E941F02DC01CB01BC01CD0147
:101B50000E944900DC01CB019C8B8B8B0FC080E97C
:101B600091E09A8B898B89899A890197F1F79A8BF1
:101B7000898B8B899C8901979C8B8B8B8B899C890A
:101B8000009769F714C06D897E898F89988D0E94AE
:101B90004900DC01CB019C8B8B8B8B899C89988BBA
:101BA0008F878F8598890197F1F7988B8F878FE0C2
:101BB00089A38E8D8F5F8E8F8E8D282F30E08F8D35
:101BC00098A12817390708F43ECFCAC08BA18823F3
:101BD00009F0C6C01D8EB9C08D8D882F90E09C0184
:101BE0002370307083E090E0022E02C0880F991FAE
:101BF0000A94E2F7982F89A1892389A38D8D882FD4
:101C000090E0837090708330910511F489E089A38E
:101C100089A1982F917081E060E0492F0E94FC1DFE
:101C200089A18695982F917081E061E0492F0E94EB
:101C3000FC1D89A186958695982F917081E062E0C0
:101C4000492F0E94FC1D89A1869586958695982F1F
:101C5000917081E063E0492F0E94FC1D80E090E0DC
:101C6000AAEFB2E48B879C87AD87BE876B857C85A6
:101C70008D859E8520E030E04AE755E40E941F02F2
:101C8000DC01CB018F839887A987BA876F8178851C
:101C900089859A8520E030E040E85FE30E942504D2
:101CA00088232CF481E090E09E838D833FC06F8178
:101CB000788589859A8520E03FEF4FE757E40E94B9
:101CC000C50318164CF56B857C858D859E8520E0B7
:101CD00030E040E251E40E941F02DC01CB01BC0174
:101CE000CD010E944900DC01CB019E838D830FC092
:101CF00080E991E09C838B838B819C810197F1F734
:101D00009C838B838D819E8101979E838D838D81A2
:101D10009E81009769F714C06F81788589859A85BF
:101D20000E944900DC01CB019E838D838D819E81C1
:101D30009A83898389819A810197F1F79A838983AC
:101D40008FE089A38D8D8F5F8D8F8D8D282F30E053
:101D50008F8D98A12817390708F43ECF01C01AA229
:101D60008AA1A5960FB6F894DEBF0FBECDBFCF9166
:101D7000DF910895DF93CF93CDB7DEB72E970FB6DF
:101D8000F894DEBF0FBECDBF81E060E040E00E946E
:101D9000FC1D81E061E040E00E94FC1D81E062E00A
:101DA00040E00E94FC1D81E063E040E00E94FC1DD9
:101DB00080E090E0AAEFB2E48B879C87AD87BE8776
:101DC0006B857C858D859E8520E030E04AE755E473
:101DD0000E941F02DC01CB018F839887A987BA87F5
:101DE0006F81788589859A8520E030E040E85FE35F
:101DF0000E94250488232CF481E090E09E838D834B
:101E00003FC06F81788589859A8520E03FEF4FE755
:101E100057E40E94C50318164CF56B857C858D85AB
:101E20009E8520E030E040E251E40E941F02DC0188
:101E3000CB01BC01CD010E944900DC01CB019E8396
:101E40008D830FC080E991E09C838B838B819C8183
:101E50000197F1F79C838B838D819E8101979E83EF
:101E60008D838D819E81009769F714C06F8178857D
:101E700089859A850E944900DC01CB019E838D8370
:101E80008D819E819A83898389819A810197F1F757
:101E90009A83898381E02E960FB6F894DEBF0FBE39
:101EA000CDBFCF91DF910895DF93CF9300D00F92F4
:101EB000CDB7DEB78B8382E066E041E00E94D21CA2
:101EC00080E061E00E94E41F81E08A838B818A3098
:101ED00078F582E066E041E00E94FC1D198224C092
:101EE0008981882F90E0FC01EF5CFE4F40818B815F
:101EF000882F90E0FC01E95DFE4F8081282F30E0C3
:101F00008981882F90E0B90102C0759567958A95FF
:101F1000E2F7CB01982F917080E0642F492F0E9447
:101F2000FC1D89818F5F898389818730C8F201C058
:101F30001A828A810F900F900F90CF91DF910895B0
:101F4000DF93CF93CDB7DEB7E1970FB6F894DEBF3E
:101F50000FBECDBF89AB80E061E040E00E94FC1D78
:101F600080E060E040E00E94FC1D89A9982F991F45
:101F70009927991F80E066E0492F0E94FC1D89A9DE
:101F80008295869586958370982F917080E065E0A4
:101F9000492F0E94FC1D89A9829586958770982FEC
:101FA000917080E064E0492F0E94FC1D89A9829510
:101FB0008F70982F917080E063E0492F0E94FC1D84
:101FC00080E062E041E00E94FC1D80E090E0A0E83B
:101FD000BFE38DA79EA7AFA7B8AB6DA57EA58FA5C4
:101FE00098A92BEA3AEA4AEA50E40E941F02DC016F
:101FF000CB0189A79AA7ABA7BCA769A57AA58BA592
:102000009CA520E030E040E85FE30E94250488239F
:102010001CF481E088A791C069A57AA58BA59CA531
:1020200020E030E04FE753E40E94C50318160CF09F
:102030007BC06DA57EA58FA598A920E030E04AE77A
:1020400054E40E941903DC01CB018CA39DA3AEA331
:10205000BFA36CA17DA18EA19FA120E030E04AE743
:1020600055E40E941F02DC01CB0188A399A3AAA317
:10207000BBA368A179A18AA19BA120E030E040E840
:102080005FE30E94250488232CF481E090E09F8F79
:102090008E8F3FC068A179A18AA19BA120E03FEF6C
:1020A0004FE757E40E94C50318164CF56CA17DA1BB
:1020B0008EA19FA120E030E040E251E40E941F0287
:1020C000DC01CB01BC01CD010E944900DC01CB0148
:1020D0009F8F8E8F0FC080E991E09D8F8C8F8C8DAC
:1020E0009D8D0197F1F79D8F8C8F8E8D9F8D019720
:1020F0009F8F8E8F8E8D9F8D009769F724C068A16A
:1021000079A18AA19BA10E944900DC01CB019F8F8C
:102110008E8F8E8D9F8D9B8F8A8F8A8D9B8D019741
:10212000F1F79B8F8A8F0FC069A57AA58BA59CA517
:102130000E944900DC01CB0188A788A5898F898D81
:102140008A95F1F7898F80E062E040E00E94FC1DF3
:1021500089A9869586958695982F917080E066E08E
:10216000492F0E94FC1D89A986958695982F91700C
:1021700080E065E0492F0E94FC1D89A98695982F73
:10218000917080E064E0492F0E94FC1D89A9982F7E
:10219000917080E063E0492F0E94FC1D80E062E0C6
:1021A00041E00E94FC1D80E090E0A0E8BFE38D8B41
:1021B0009E8BAF8BB88F6D897E898F89988D2BEA26
:1021C0003AEA4AEA50E40E941F02DC01CB01898B03
:1021D0009A8BAB8BBC8B69897A898B899C8920E02F
:1021E00030E040E85FE30E94250488231CF481E08E
:1021F000888B91C069897A898B899C8920E030E03D
:102200004FE753E40E94C50318160CF07BC06D899C
:102210007E898F89988D20E030E04AE754E40E945F
:102220001903DC01CB018C879D87AE87BF876C8546
:102230007D858E859F8520E030E04AE755E40E9449
:102240001F02DC01CB0188879987AA87BB87688535
:1022500079858A859B8520E030E040E85FE30E9435
:10226000250488232CF481E090E09F838E833FC077
:10227000688579858A859B8520E03FEF4FE757E4A5
:102280000E94C50318164CF56C857D858E859F854B
:1022900020E030E040E251E40E941F02DC01CB016B
:1022A000BC01CD010E944900DC01CB019F838E83DC
:1022B0000FC080E991E09D838C838C819D81019783
:1022C000F1F79D838C838E819F8101979F838E83FD
:1022D0008E819F81009769F724C0688579858A85FA
:1022E0009B850E944900DC01CB019F838E838E81F8
:1022F0009F819B838A838A819B810197F1F79B83CE
:102300008A830FC069897A898B899C890E944900D8
:10231000DC01CB01888B8889898389818A95F1F7D3
:10232000898380E062E040E00E94FC1D81E0E1964C
:102330000FB6F894DEBF0FBECDBFCF91DF910895E9
:10234000DF93CF93CDB7DEB7E1970FB6F894DEBF3A
:102350000FBECDBF89AB80E061E041E00E94FC1D73
:1023600080E060E040E00E94FC1D89A9982F991F41
:102370009927991F80E066E0492F0E94FC1D89A9DA
:102380008295869586958370982F917080E065E0A0
:10239000492F0E94FC1D89A9829586958770982FE8
:1023A000917080E064E0492F0E94FC1D89A982950C
:1023B0008F70982F917080E063E0492F0E94FC1D80
:1023C00080E062E041E00E94FC1D80E090E0A0E837
:1023D000BFE38DA79EA7AFA7B8AB6DA57EA58FA5C0
:1023E00098A92BEA3AEA4AEA50E40E941F02DC016B
:1023F000CB0189A79AA7ABA7BCA769A57AA58BA58E
:102400009CA520E030E040E85FE30E94250488239B
:102410001CF481E088A791C069A57AA58BA59CA52D
:1024200020E030E04FE753E40E94C50318160CF09B
:102430007BC06DA57EA58FA598A920E030E04AE776
:1024400054E40E941903DC01CB018CA39DA3AEA32D
:10245000BFA36CA17DA18EA19FA120E030E04AE73F
:1024600055E40E941F02DC01CB0188A399A3AAA313
:10247000BBA368A179A18AA19BA120E030E040E83C
:102480005FE30E94250488232CF481E090E09F8F75
:102490008E8F3FC068A179A18AA19BA120E03FEF68
:1024A0004FE757E40E94C50318164CF56CA17DA1B7
:1024B0008EA19FA120E030E040E251E40E941F0283
:1024C000DC01CB01BC01CD010E944900DC01CB0144
:1024D0009F8F8E8F0FC080E991E09D8F8C8F8C8DA8
:1024E0009D8D0197F1F79D8F8C8F8E8D9F8D01971C
:1024F0009F8F8E8F8E8D9F8D009769F724C068A166
:1025000079A18AA19BA10E944900DC01CB019F8F88
:102510008E8F8E8D9F8D9B8F8A8F8A8D9B8D01973D
:10252000F1F79B8F8A8F0FC069A57AA58BA59CA513
:102530000E944900DC01CB0188A788A5898F898D7D
:102540008A95F1F7898F80E062E040E00E94FC1DEF
:1025500089A9869586958695982F917080E066E08A
:10256000492F0E94FC1D89A986958695982F917008
:1025700080E065E0492F0E94FC1D89A98695982F6F
:10258000917080E064E0492F0E94FC1D89A9982F7A
:10259000917080E063E0492F0E94FC1D80E062E0C2
:1025A00041E00E94FC1D80E090E0A0E8BFE38D8B3D
:1025B0009E8BAF8BB88F6D897E898F89988D2BEA22
:1025C0003AEA4AEA50E40E941F02DC01CB01898BFF
:1025D0009A8BAB8BBC8B69897A898B899C8920E02B
:1025E00030E040E85FE30E94250488231CF481E08A
:1025F000888B91C069897A898B899C8920E030E039
:102600004FE753E40E94C50318160CF07BC06D8998
:102610007E898F89988D20E030E04AE754E40E945B
:102620001903DC01CB018C879D87AE87BF876C8542
:102630007D858E859F8520E030E04AE755E40E9445
:102640001F02DC01CB0188879987AA87BB87688531
:1026500079858A859B8520E030E040E85FE30E9431
:10266000250488232CF481E090E09F838E833FC073
:10267000688579858A859B8520E03FEF4FE757E4A1
:102680000E94C50318164CF56C857D858E859F8547
:1026900020E030E040E251E40E941F02DC01CB0167
:1026A000BC01CD010E944900DC01CB019F838E83D8
:1026B0000FC080E991E09D838C838C819D8101977F
:1026C000F1F79D838C838E819F8101979F838E83F9
:1026D0008E819F81009769F724C0688579858A85F6
:1026E0009B850E944900DC01CB019F838E838E81F4
:1026F0009F819B838A838A819B810197F1F79B83CA
:102700008A830FC069897A898B899C890E944900D4
:10271000DC01CB01888B8889898389818A95F1F7CF
:10272000898380E062E040E00E94FC1D81E0E19648
:102730000FB6F894DEBF0FBECDBFCF91DF910895E5
:10274000DF93CF9300D00F92CDB7DEB79B838A8300
:102750000EC08981282F30E08A819B81FC01E20F25
:10276000F31F80810E94A01189818F5F89838981F5
:10277000282F30E08A819B81FC01E20FF31F8081CA
:10278000882339F781E00F900F900F90CF91DF9160
:1027900008950F931F93DF93CF93CDB7DEB7609764
:1027A0000FB6F894DEBF0FBECDBF6D877E878F87D3
:1027B000988B1A8219828D859E85AF85B88900977E
:1027C000A105B10589F580E30E94A0114DC08A8161
:1027D000082F10E08D859E85AF85B8892AE030E00E
:1027E00040E050E0BC01CD010E943E21DC01CB0164
:1027F000282FCE010396FC01E00FF11F20838D8569
:102800009E85AF85B8892AE030E040E050E0BC0109
:10281000CD010E943E21DA01C9018D879E87AF87D5
:10282000B88B8A818F5F8A838D859E85AF85B889B5
:102830000097A105B10559F68A818150898311C09D
:102840008981282F332727FD3095CE010396FC017F
:10285000E20FF31F8081805D0E94A0118981815069
:1028600089838981882364F781E060960FB6F894A4
:10287000DEBF0FBECDBFCF91DF911F910F910895A5
:10288000DF93CF9300D000D00F92CDB7DEB789830E
:102890006A838A818832F0F48981282F30E03D8371
:1028A0002C838C819D81009731F02C813D812130DA
:1028B000310531F00AC08A8180580E94A00F07C0FC
:1028C0008A8180540E94A00F02C01B8204C031E0A4
:1028D0003B8301C01B828B810F900F900F900F9054
:1028E0000F90CF91DF9108950F931F93DF93CF93B4
:1028F000CDB7DEB7CC54D0400FB6F894DEBF0FBED4
:10290000CDBF80E061E041E00E94D21C80E060E049
:1029100041E00E94D21C80E062E041E00E94D21CB3
:1029200080E066E041E00E94D21C80E065E041E08A
:102930000E94D21C80E064E041E00E94D21C80E052
:1029400063E041E00E94D21CFE01E75BFF4F80E0A4
:1029500090E0ACE0B2E480839183A283B3838E01E4
:102960000B5B1F4FFE01E75BFF4F6081718182812E
:10297000938120E030E04AE755E40E941F02DC0129
:10298000CB01F80180839183A283B383FE01EB5BCB
:10299000FF4F608171818281938120E030E040E8C7
:1029A0005FE30E942504882344F4FE01ED5BFF4FA2
:1029B00081E090E09183808364C0FE01EB5BFF4F78
:1029C000608171818281938120E03FEF4FE757E47E
:1029D0000E94C50318160CF043C0FE01E75BFF4FD1
:1029E000608171818281938120E030E040E251E496
:1029F0000E941F02DC01CB018E010D5B1F4FBC0149
:102A0000CD010E944900DC01CB01F8019183808354
:102A10001FC0FE01EF5BFF4F80E991E0918380834F
:102A2000FE01EF5BFF4F808191810197F1F7FE017D
:102A3000EF5BFF4F91838083DE01AD5BBF4FFE01F3
:102A4000ED5BFF4F80819181019711969C938E934E
:102A5000FE01ED5BFF4F808191810097D1F624C08C
:102A60008E010D5B1F4FFE01EB5BFF4F608171819B
:102A7000828193810E944900DC01CB01F80191839E
:102A80008083FE01ED5BFF4F80819181FE01FF9607
:102A900091838083FE01FF96808191810197F1F7F8
:102AA000FE01FF969183808383E30E94A00F82E35F
:102AB0000E94A00F88E20E94A00F80E090E0A0E2B8
:102AC000B2E48BAF9CAFADAFBEAF6BAD7CAD8DADA7
:102AD0009EAD2BEA3AEA4AEA50E40E941F02DC016A
:102AE000CB018FAB98AFA9AFBAAF6FA978AD89AD65
:102AF0009AAD20E030E040E85FE30E94250488239F
:102B00001CF481E08EAB91C06FA978AD89AD9AAD10
:102B100020E030E04FE753E40E94C50318160CF0A4
:102B20007BC06BAD7CAD8DAD9EAD20E030E04AE763
:102B300054E40E941903DC01CB018AAB9BABACAB24
:102B4000BDAB6AA97BA98CA99DA920E030E04AE72A
:102B500055E40E941F02DC01CB018EA79FA7A8AB02
:102B6000B9AB6EA57FA588A999A920E030E040E81F
:102B70005FE30E94250488232CF481E090E09DA768
:102B80008CA73FC06EA57FA588A999A920E03FEF3B
:102B90004FE757E40E94C50318164CF56AA97BA9B4
:102BA0008CA99DA920E030E040E251E40E941F0280
:102BB000DC01CB01BC01CD010E944900DC01CB014D
:102BC0009DA78CA70FC080E991E09BA78AA78AA543
:102BD0009BA50197F1F79BA78AA78CA59DA50197B7
:102BE0009DA78CA78CA59DA5009769F724C06EA50D
:102BF0007FA588A999A90E944900DC01CB019DA766
:102C00008CA78CA59DA599A788A788A599A50197AC
:102C1000F1F799A788A70FC06FA978AD89AD9AADD4
:102C20000E944900DC01CB018EAB8EA98FA38FA13E
:102C30008A95F1F78FA38FE00E94A00F80E090E0CB
:102C4000A0E2B2E48BA39CA3ADA3BEA36BA17CA125
:102C50008DA19EA12BEA3AEA4AEA50E40E941F02A3
:102C6000DC01CB018F8F98A3A9A3BAA36F8D78A1A4
:102C700089A19AA120E030E040E85FE30E942504AA
:102C800088231CF481E08E8F91C06F8D78A189A17B
:102C90009AA120E030E04FE753E40E94C5031816E4
:102CA0000CF07BC06BA17CA18DA19EA120E030E047
:102CB0004AE754E40E941903DC01CB018A8F9B8F01
:102CC000AC8FBD8F6A8D7B8D8C8D9D8D20E030E02B
:102CD0004AE755E40E941F02DC01CB018E8B9F8BDB
:102CE000A88FB98F6E897F89888D998D20E030E01B
:102CF00040E85FE30E94250488232CF481E090E003
:102D00009D8B8C8B3FC06E897F89888D998D20E04B
:102D10003FEF4FE757E40E94C50318164CF56A8D44
:102D20007B8D8C8D9D8D20E030E040E251E40E944F
:102D30001F02DC01CB01BC01CD010E944900DC0176
:102D4000CB019D8B8C8B0FC080E991E09B8B8A8B94
:102D50008A899B890197F1F79B8B8A8B8C899D8946
:102D600001979D8B8C8B8C899D89009769F724C076
:102D70006E897F89888D998D0E944900DC01CB0185
:102D80009D8B8C8B8C899D89998B888B888999895F
:102D90000197F1F7998B888B0FC06F8D78A189A16E
:102DA0009AA10E944900DC01CB018E8F8E8D8F8706
:102DB0008F858A95F1F78F8781E00E94A00F80E0D0
:102DC00090E0A0E0B0E48B879C87AD87BE876B85E1
:102DD0007C858D859E8520E030E04AE755E40E94A1
:102DE0001F02DC01CB018F839887A987BA876F8187
:102DF000788589859A8520E030E040E85FE30E948D
:102E0000250488232CF481E090E09E838D833FC0CD
:102E10006F81788589859A8520E03FEF4FE757E4F9
:102E20000E94C50318164CF56B857C858D859E85A3
:102E300020E030E040E251E40E941F02DC01CB01BF
:102E4000BC01CD010E944900DC01CB019E838D8332
:102E50000FC080E991E09C838B838B819C810197DB
:102E6000F1F79C838B838D819E8101979E838D8357
:102E70008D819E81009769F714C06F81788589855F
:102E80009A850E944900DC01CB019E838D838D8150
:102E90009E819A83898389819A810197F1F79A8328
:102EA000898386E00E94A00F81E0C45BDF4F0FB6EC
:102EB000F894DEBF0FBECDBFCF91DF911F910F9170
:102EC0000895DF93CF93CDB7DEB72E970FB6F89462
:102ED000DEBF0FBECDBF81E00E94A00F80E090E07A
:102EE000A0E0B0E48B879C87AD87BE876B857C852F
:102EF0008D859E8520E030E04AE755E40E941F0260
:102F0000DC01CB018F839887A987BA876F81788589
:102F100089859A8520E030E040E85FE30E9425043F
:102F200088232CF481E090E09E838D833FC06F81E5
:102F3000788589859A8520E03FEF4FE757E40E9426
:102F4000C50318164CF56B857C858D859E8520E024
:102F500030E040E251E40E941F02DC01CB01BC01E1
:102F6000CD010E944900DC01CB019E838D830FC0FF
:102F700080E991E09C838B838B819C810197F1F7A1
:102F80009C838B838D819E8101979E838D838D8110
:102F90009E81009769F714C06F81788589859A852D
:102FA0000E944900DC01CB019E838D838D819E812F
:102FB0009A83898389819A810197F1F79A8389831A
:102FC00081E02E960FB6F894DEBF0FBECDBFCF9135
:102FD000DF910895DF93CF9300D000D00F92CDB74B
:102FE000DEB78A837C836B838B819C81009749F158
:102FF0008A81883030F58A81882F90E00896880F82
:10300000991F880F991F880F991F0E94A00F19827E
:103010000EC08981282F30E08B819C81FC01E20F5A
:10302000F31F80810E94A01189818F5F898389812C
:10303000883078F380E060E00E94401481E08D8366
:1030400002C081E08D838D810F900F900F900F90C3
:103050000F90CF91DF910895DF93CF930F92CDB76B
:10306000DEB7198233C08981882F90E0FC01E85BCC
:10307000FE4F908181E0692F41E00E94D21C89813E
:10308000882F90E0FC01E85BFE4F908181E0692F82
:1030900041E00E94FC1D8981882F90E0FC01E45BE7
:1030A000FE4F908183E0692F40E00E94D21C89810D
:1030B000882F90E0FC01E45BFE4F908183E0692F54
:1030C00041E00E94FC1D89818F5F89838981843062
:1030D00050F281E00F90CF91DF910895DF93CF936D
:1030E000CDB7DEB765970FB6F894DEBF0FBECDBF84
:1030F0009D8B8C8B81E08A8B1B8A1F868C899D8996
:10310000009709F4F0C0EC89FD898FEF8083198A5C
:10311000E5C08989882F90E0FC01E85BFE4F908133
:1031200081E0692F40E00E94FC1D188AC1C0888997
:10313000882F90E0FC01E45BFE4F90819E012D5EA4
:103140003F4F83E0692FA9010E94261F8B898823A6
:1031500009F0ABC080E090E0A0EAB1E48B879C87E7
:10316000AD87BE876B857C858D859E8520E030E0B0
:103170004AE755E40E941F02DC01CB018F83988748
:10318000A987BA876F81788589859A8520E030E0A4
:1031900040E85FE30E94250488232CF481E090E05E
:1031A0009E838D833FC06F81788589859A8520E0D5
:1031B0003FEF4FE757E40E94C50318164CF56B85A7
:1031C0007C858D859E8520E030E040E251E40E94C0
:1031D0001F02DC01CB01BC01CD010E944900DC01D2
:1031E000CB019E838D830FC080E991E09C838B830C
:1031F0008B819C810197F1F79C838B838D819E81CC
:1032000001979E838D838D819E81009769F714C0FD
:103210006F81788589859A850E944900DC01CB0100
:103220009E838D838D819E819A83898389819A81F2
:103230000197F1F79A8389838889882F90E0FC01B0
:10324000E45BFE4F90819E012D5E3F4F83E0692F2E
:10325000A9010E94261F0FC08889882F90E0FC01D9
:10326000E45BFE4F90819E012D5E3F4F83E0692F0E
:10327000A9010E94261F8B89882371F38989482F11
:1032800050E08889282F30E0CA01880F991F880FE5
:10329000991F820F931FFC01E85CFE4F8081EC892F
:1032A000FD89808381E08F8707C088898F5F888B45
:1032B0008889843008F43BCF8989882F90E0FC010D
:1032C000E85BFE4F908181E0692F41E00E94FC1D88
:1032D0008F85882349F489898F5F898B8989843018
:1032E00008F417CF01C01A8A8A8965960FB6F89438
:1032F000DEBF0FBECDBFCF91DF910895DF93CF9397
:1033000000D00F92CDB7DEB78A836B8381E08983CB
:103310008A81813019F08A81882359F58B81813027
:1033200019F08B81882329F58A81813079F482E034
:1033300064E041E00E94D21C82E060E041E00E9433
:10334000D21C82E061E041E00E94D21C8B8181307E
:1033500089F482E065E041E00E94D21C82E062E0F4
:1033600041E00E94D21C82E063E041E00E94D21C56
:1033700001C0198289810F900F900F90CF91DF913A
:103380000895DF93CF93CDB7DEB729970FB6F894A2
:10339000DEBF0FBECDBF8A836B8381E089838A81C4
:1033A000282F30E03987288788859985009731F064
:1033B000288539852130310589F160C08B81282F1E
:1033C00030E03F832E838E819F810097A9F02E816C
:1033D0003F812130310501F582E064E041E00E9447
:1033E000FC1D82E060E041E00E94FC1D82E061E0A3
:1033F00040E00E94FC1D43C082E064E041E00E9486
:10340000FC1D82E060E040E00E94FC1D82E061E083
:1034100041E00E94FC1D33C0198231C08B81282FEE
:1034200030E03D832C838C819D810097A9F02C8115
:103430003D812130310501F582E065E041E00E94E7
:10344000FC1D82E062E041E00E94FC1D82E063E03E
:1034500040E00E94FC1D13C082E065E041E00E9454
:10346000FC1D82E062E040E00E94FC1D82E063E01F
:1034700041E00E94FC1D03C0198201C019828981AC
:1034800029960FB6F894DEBF0FBECDBFCF91DF9166
:103490000895DF93CF9300D0CDB7DEB78A8381E064
:1034A00089838A81882331F482E064E040E00E94CD
:1034B000FC1D0AC08A81813031F482E065E040E081
:1034C0000E94FC1D01C0198289810F900F90CF913D
:1034D000DF910895DF93CF93CDB7DEB7AFE5B0E0CE
:1034E000EFE5F0E0808180688C9381E0CF91DF91FF
:1034F0000895DF93CF93CDB7DEB7AFE5B0E0EFE54A
:10350000F0E080818F778C9381E0CF91DF910895F7
:10351000DF93CF93CDB7DEB72B970FB6F894DEBF0E
:103520000FBECDBF8A836B8381E089838A8183301C
:1035300008F007C18B81843008F003C18A81282FED
:1035400030E03B872A878A859B858130910509F485
:103550006DC02A853B852230310509F4C9C08A85B2
:103560009B85009709F0EEC0ABE5B0E0EBE5F0E03D
:10357000808180648C938B81282F30E03987288765
:10358000888599858130910521F1288539852230FA
:1035900031052CF488859985009761F0D3C0288582
:1035A00039852230310521F188859985833091054F
:1035B00071F1C8C0A5E5B0E0E5E5F0E080818E7F5F
:1035C0008C93A5E5B0E0E5E5F0E080818D7F8C93FC
:1035D000B9C0A5E5B0E0E5E5F0E0808181608C93BD
:1035E000A5E5B0E0E5E5F0E080818D7F8C93AAC091
:1035F000A5E5B0E0E5E5F0E080818E7F8C93A5E560
:10360000B0E0E5E5F0E0808182608C939BC0A5E5A9
:10361000B0E0E5E5F0E0808181608C93A5E5B0E065
:10362000E5E5F0E0808182608C938CC0ABE5B0E092
:10363000EBE5F0E0808180688C938B81282F30E06F
:103640003F832E838E819F818130910521F12E81D0
:103650003F81223031052CF48E819F81009761F0EB
:1036600071C02E813F812230310521F18E819F81F1
:103670008330910571F166C0A5E5B0E0E5E5F0E0C5
:1036800080818B7F8C93A5E5B0E0E5E5F0E080815B
:10369000877F8C9357C0A5E5B0E0E5E5F0E0808139
:1036A00084608C93A5E5B0E0E5E5F0E08081877F5C
:1036B0008C9348C0A5E5B0E0E5E5F0E080818B7F24
:1036C0008C93A5E5B0E0E5E5F0E0808188608C931F
:1036D00039C0A5E5B0E0E5E5F0E0808184608C9339
:1036E000A5E5B0E0E5E5F0E0808188608C932AC034
:1036F000ABE5B0E0EBE5F0E0808180628C938B81FC
:10370000282F30E03D832C838C819D818230910570
:1037100031F02C813D812330310549F010C0A4E502
:10372000B0E0E4E5F0E080818F7B8C930BC0A4E5F2
:10373000B0E0E4E5F0E0808180648C9303C01982FE
:1037400001C0198289812B960FB6F894DEBF0FBE97
:10375000CDBFCF91DF910895DF93CF9300D000D0FC
:10376000CDB7DEB78A8381E089838A81833058F5BB
:103770008A81282F30E03C832B838B819C81813090
:10378000910589F02B813C8122303105A1F08B819C
:103790009C810097C9F4ABE5B0E0EBE5F0E08081F7
:1037A0008F7B8C9311C0ABE5B0E0EBE5F0E080815E
:1037B0008F778C9309C0ABE5B0E0EBE5F0E080815A
:1037C0008F7D8C9301C0198289810F900F900F908B
:1037D0000F90CF91DF910895DF93CF9300D000D069
:1037E000CDB7DEB79B838A836C8381E089838A812E
:1037F0009B81009781F08C81833068F48C81882FC5
:1038000090E0880F991FFC01E05BFE4F8A819B814D
:103810009183808301C0198289810F900F900F904E
:103820000F90CF91DF9108951F920F920FB60F92D4
:1038300011242F933F934F935F936F937F938F93B5
:103840009F93AF93BF93EF93FF93DF93CF93CDB746
:10385000DEB78091500190915101009729F0E091DD
:103860005001F09151010995CF91DF91FF91EF91B6
:10387000BF91AF919F918F917F916F915F914F9188
:103880003F912F910F900FBE0F901F9018951F9290
:103890000F920FB60F9211242F933F934F935F9384
:1038A0006F937F938F939F93AF93BF93EF93FF9308
:1038B000DF93CF93CDB7DEB7809152019091530142
:1038C000009729F0E0915201F09153010995CF91B1
:1038D000DF91FF91EF91BF91AF919F918F917F9178
:1038E0006F915F914F913F912F910F900FBE0F906D
:1038F0001F9018951F920F920FB60F9211242F93BD
:103900003F934F935F936F937F938F939F93AF9367
:10391000BF93EF93FF93DF93CF93CDB7DEB7809143
:10392000540190915501009729F0E0915401F091D4
:1039300055010995CF91DF91FF91EF91BF91AF9123
:103940009F918F917F916F915F914F913F912F91B7
:103950000F900FBE0F901F901895DF93CF93CDB7A8
:10396000DEB7EAE3F0E08FE78083E7E3F0E08DEF96
:103970008083E4E3F0E083E18083E1E3F0E0108220
:10398000EBE3F0E01082E8E3F0E084EF8083E5E32E
:10399000F0E01082E2E3F0E08CE3808381E0CF91FD
:1039A000DF910895DF93CF93CDB7DEB72E970FB693
:1039B000F894DEBF0FBECDBF8A836B834C8381E05A
:1039C00089838A81843008F00CC18B81883008F0AB
:1039D00008C18C81813021F08C81882309F001C1DC
:1039E0008A81282F30E03E872D878D859E85813006
:1039F000910509F44FC02D853E85223031052CF408
:103A00008D859E85009771F0EDC02D853E85223015
:103A1000310509F477C08D859E858330910509F4C1
:103A2000A9C0E0C08C81282F30E03C872B878B8594
:103A30009C850097D1F02B853C852130310509F01C
:103A4000D1C0AAE3B0E0EAE3F0E08081482F8B81A7
:103A5000282F30E081E090E0022E02C0880F991FED
:103A60000A94E2F7842B8C93BDC0AAE3B0E0EAE3AA
:103A7000F0E08081482F8B81282F30E081E090E0BA
:103A8000022E02C0880F991F0A94E2F780958423C2
:103A90008C93A8C08C81282F30E03A8729878985AC
:103AA0009A850097D1F029853A852130310509F0B2
:103AB00099C0A7E3B0E0E7E3F0E08081482F8B8175
:103AC000282F30E081E090E0022E02C0880F991F7D
:103AD0000A94E2F7842B8C9385C0A7E3B0E0E7E378
:103AE000F0E08081482F8B81282F30E081E090E04A
:103AF000022E02C0880F991F0A94E2F78095842352
:103B00008C9370C08C81282F30E038872F838F8171
:103B100098850097D1F02F8138852130310509F043
:103B200061C0A4E3B0E0E4E3F0E08081482F8B8142
:103B3000282F30E081E090E0022E02C0880F991F0C
:103B40000A94E2F7842B8C934DC0A4E3B0E0E4E345
:103B5000F0E08081482F8B81282F30E081E090E0D9
:103B6000022E02C0880F991F0A94E2F780958423E1
:103B70008C9338C08C81282F30E03E832D838D813B
:103B80009E810097C9F02D813E812130310551F58C
:103B9000A1E3B0E0E1E3F0E08081482F8B81282FA2
:103BA00030E081E090E0022E02C0880F991F0A9455
:103BB000E2F7842B8C9316C0A1E3B0E0E1E3F0E0E0
:103BC0008081482F8B81282F30E081E090E0022E09
:103BD00002C0880F991F0A94E2F7809584238C9382
:103BE00001C0198289812E960FB6F894DEBF0FBEF0
:103BF000CDBFCF91DF910895DF93CF93CDB7DEB7DF
:103C00002E970FB6F894DEBF0FBECDBF8A836B83AD
:103C10004C8381E089838A81843008F00CC18B81D8
:103C2000883008F008C18C81813021F08C81882394
:103C300009F001C18A81282F30E03E872D878D85CC
:103C40009E858130910509F44FC02D853E85223037
:103C500031052CF48D859E85009771F0EDC02D8582
:103C60003E852230310509F477C08D859E858330ED
:103C7000910509F4A9C0E0C08C81282F30E03C8771
:103C80002B878B859C850097D1F02B853C85213037
:103C9000310509F0D1C0ABE3B0E0EBE3F0E08081A7
:103CA000482F8B81282F30E081E090E0022E02C067
:103CB000880F991F0A94E2F7842B8C93BDC0ABE365
:103CC000B0E0EBE3F0E08081482F8B81282F30E0DB
:103CD00081E090E0022E02C0880F991F0A94E2F75B
:103CE000809584238C93A8C08C81282F30E03A875C
:103CF000298789859A850097D1F029853A852130D1
:103D0000310509F099C0A8E3B0E0E8E3F0E0808174
:103D1000482F8B81282F30E081E090E0022E02C0F6
:103D2000880F991F0A94E2F7842B8C9385C0A8E32F
:103D3000B0E0E8E3F0E08081482F8B81282F30E06D
:103D400081E090E0022E02C0880F991F0A94E2F7EA
:103D5000809584238C9370C08C81282F30E0388725
:103D60002F838F8198850097D1F02F81388521305E
:103D7000310509F061C0A5E3B0E0E5E3F0E0808142
:103D8000482F8B81282F30E081E090E0022E02C086
:103D9000880F991F0A94E2F7842B8C934DC0A5E3FA
:103DA000B0E0E5E3F0E08081482F8B81282F30E000
:103DB00081E090E0022E02C0880F991F0A94E2F77A
:103DC000809584238C9338C08C81282F30E03E83EB
:103DD0002D838D819E810097C9F02D813E812130F8
:103DE000310551F5A2E3B0E0E2E3F0E08081482F35
:103DF0008B81282F30E081E090E0022E02C0880FF6
:103E0000991F0A94E2F7842B8C9316C0A2E3B0E0CA
:103E1000E2E3F0E08081482F8B81282F30E081E0C1
:103E200090E0022E02C0880F991F0A94E2F7809555
:103E300084238C9301C0198289812E960FB6F89441
:103E4000DEBF0FBECDBFCF91DF910895DF93CF933B
:103E5000CDB7DEB728970FB6F894DEBF0FBECDBF43
:103E60008B836C835E834D8381E08A838B81843076
:103E700008F09FC08C81883008F09BC08D819E81A6
:103E8000009709F496C08B81282F30E038872F8364
:103E90004F81588541305105A9F18F819885823035
:103EA000910534F42F8138852115310571F082C0D8
:103EB0004F8158854230510509F441C08F81988562
:103EC0008330910509F458C075C0E9E3F0E08081C2
:103ED000282F30E08C81882F90E0A90102C05595F1
:103EE00047958A95E2F7CA01817089838981882381
:103EF00021F4ED81FE8110825DC0ED81FE8181E0C3
:103F0000808358C0E6E3F0E08081282F30E08C8188
:103F1000882F90E0A90102C0559547958A95E2F750
:103F2000CA01817089838981882321F4ED81FE8112
:103F3000108240C0ED81FE8181E080833BC0E3E3DD
:103F4000F0E08081282F30E08C81882F90E0A9015B
:103F500002C0559547958A95E2F7CA018170898319
:103F60008981882321F4ED81FE81108223C0ED81B7
:103F7000FE8181E080831EC0E0E3F0E08081282F95
:103F800030E08C81882F90E0A90102C055954795BB
:103F90008A95E2F7CA01817089838981882321F497
:103FA000ED81FE81108206C0ED81FE8181E080837B
:103FB00001C01A828A8128960FB6F894DEBF0FBE20
:103FC000CDBFCF91DF910895DF93CF93CDB7DEB70B
:103FD0002D970FB6F894DEBF0FBECDBF8A836B83DB
:103FE00081E089838A81843008F084C08B818130AC
:103FF00021F08B81882309F07DC08A81282F30E051
:104000003D872C878C859D858130910571F12C85AC
:104010003D85223031052CF48C859D85009769F013
:104020006AC02C853D8522303105B1F18C859D8596
:104030008330910509F447C05EC08B81282F30E0A2
:104040003B872A878A859B85009759F02A853B857F
:104050002130310509F04FC0EAE3F0E08FEF8083B3
:104060004AC0EAE3F0E0108246C08B81282F30E09E
:104070003987288788859985009751F02885398563
:1040800021303105C1F5E7E3F0E08FEF808333C0E5
:10409000E7E3F0E010822FC08B81282F30E03F83D0
:1040A0002E838E819F81009751F02E813F81213098
:1040B000310509F5E4E3F0E08FEF80831CC0E4E311
:1040C000F0E0108218C08B81282F30E03D832C83D4
:1040D0008C819D81009751F02C813D8121303105EB
:1040E00051F4E1E3F0E08FEF808305C0E1E3F0E01D
:1040F000108201C0198289812D960FB6F894DEBF17
:104100000FBECDBFCF91DF910895DF93CF9300D045
:1041100000D00F92CDB7DEB78A836B8381E08983AD
:104120008A81843098F58A81282F30E03D832C8362
:104130008C819D8181309105D1F02C813D8122308F
:1041400031052CF48C819D81009761F020C02C8179
:104150003D812230310581F08C819D818330910534
:1041600081F015C0EBE3F0E08B81808310C0E8E3C1
:10417000F0E08B8180830BC0E5E3F0E08B818083EE
:1041800006C0E2E3F0E08B81808301C0198289815F
:104190000F900F900F900F900F90CF91DF91089597
:1041A000DF93CF9300D000D000D0CDB7DEB78A83A5
:1041B0007C836B8381E089838A81843008F03FC0EF
:1041C0008B819C810097D9F18A81282F30E03E8332
:1041D0002D838D819E8181309105E1F02D813E817D
:1041E000223031052CF48D819E81009761F028C02A
:1041F0002D813E8122303105A1F08D819E81833059
:104200009105B1F01DC0E9E3F0E08081EB81FC8114
:10421000808316C0E6E3F0E08081EB81FC8180833F
:104220000FC0E3E3F0E08081EB81FC81808308C074
:10423000E0E3F0E08081EB81FC81808301C01982A2
:10424000898126960FB6F894DEBF0FBECDBFCF9101
:10425000DF910895AA1BBB1B51E107C0AA1FBB1F1A
:10426000A617B70710F0A61BB70B881F991F5A9502
:10427000A9F780959095BC01CD010895A1E21A2E71
:10428000AA1BBB1BFD010DC0AA1FBB1FEE1FFF1FFA
:10429000A217B307E407F50720F0A21BB30BE40B4A
:1042A000F50B661F771F881F991F1A9469F7609591
:1042B0007095809590959B01AC01BD01CF0108954B
:1042C0002F923F924F925F926F927F928F929F9226
:1042D000AF92BF92CF92DF92EF92FF920F931F9314
:1042E000CF93DF93CDB7DEB7CA1BDB0B0FB6F894C5
:1042F000DEBF0FBECDBF09942A88398848885F8405
:104300006E847D848C849B84AA84B984C884DF8075
:10431000EE80FD800C811B81AA81B981CE0FD11D59
:104320000FB6F894DEBF0FBECDBFED010895F8942F
:02433000FFCFBD
:10433200312D44434D6F746F7220332D457869746B
:1043420000322D53746570706572204D6F746F72F8
:1043520000312D526F746174652043572000322D55
:10436200526F74617465204343570048656C6C6FEB
:104372002C2055736572203A2900456E74657220AF
:1043820050617373776F72643A0057726F6E672071
:1043920050617373776F7264005472792041676160
:1043A200696E210057656C636F6D65203A29004381
:1043B200686F6F7365204F7074696F6E202E2E00C8
:1043C200456E74657220416E676C653A0045786986
:1043D20074696E67202E2E200053746F7070696EA0
:1043E20067204D6F746F72730035313132300000C7
:1043F200000000000000003F065B4F666D7D077FF6
:104402006F010203040506073738392F3435362A7F
:104412003132332D43303D2B0405060704050607D0
:00000001FF
