:100000000C942A000C9434000C9434000C943400AA
:100010000C9434000C9434000C9434000C94340090
:100020000C9434000C9434000C9434000C94340080
:100030000C9434000C9434000C9434000C94340070
:100040000C9434000C9434000C9434000C94340060
:100050000C94340011241FBECFE5D8E0DEBFCDBF25
:100060000E9436000C9408050C940000DF93CF9397
:1000700000D0CDB7DEB70E94900080E060E040E0A5
:100080000E94B00080E065E041E00E94B00081E0A5
:1000900061E040E00E94B00081E063E041E00E9446
:1000A000B00082E060E041E00E94B00083E061E0E7
:1000B0000E94C20382E060E041E00E94DA0183E036
:1000C0006FEF0E94630480E060E09E012F5F3F4F6E
:1000D000A9010E9404039E012E5F3F4F81E061E071
:1000E000A9010E9404038981813031F480E065E038
:1000F00041E00E94DA0105C080E065E040E00E9436
:10010000DA018A81813031F481E063E041E00E94CC
:10011000DA01D0CF81E063E040E00E94DA01CACF8B
:10012000DF93CF93CDB7DEB7EAE3F0E01082E7E3E9
:10013000F0E01082E4E3F0E01082E1E3F0E010820E
:10014000EBE3F0E01082E8E3F0E01082E5E3F0E0BA
:100150001082E2E3F0E0108280E0CF91DF91089519
:10016000DF93CF93CDB7DEB72E970FB6F894DEBFEF
:100170000FBECDBF8A836B834C8319828A81843002
:1001800008F00CC18B81883008F008C18C81813067
:1001900021F08C81882309F001C18A81282F30E069
:1001A0003E872D878D859E858130910509F44FC04E
:1001B0002D853E85223031052CF48D859E85009756
:1001C00071F0EEC02D853E852230310509F477C0EF
:1001D0008D859E858330910509F4A9C0E1C08C818D
:1001E000282F30E03C872B878B859C850097D1F0AA
:1001F0002B853C852130310509F0D2C0AAE3B0E05F
:10020000EAE3F0E08081482F8B81282F30E081E005
:1002100090E0022E02C0880F991F0A94E2F7842B07
:100220008C93BEC0AAE3B0E0EAE3F0E08081482FFF
:100230008B81282F30E081E090E0022E02C0880FF1
:10024000991F0A94E2F7809584238C93A9C08C812E
:10025000282F30E03A87298789859A850097D1F041
:1002600029853A852130310509F09AC0A7E3B0E02D
:10027000E7E3F0E08081482F8B81282F30E081E098
:1002800090E0022E02C0880F991F0A94E2F7842B97
:100290008C9386C0A7E3B0E0E7E3F0E08081482FCD
:1002A0008B81282F30E081E090E0022E02C0880F81
:1002B000991F0A94E2F7809584238C9371C08C81F6
:1002C000282F30E038872F838F8198850097D1F0D1
:1002D0002F8138852130310509F062C0A4E3B0E0F8
:1002E000E4E3F0E08081482F8B81282F30E081E02B
:1002F00090E0022E02C0880F991F0A94E2F7842B27
:100300008C934EC0A4E3B0E0E4E3F0E08081482F9A
:100310008B81282F30E081E090E0022E02C0880F10
:10032000991F0A94E2F7809584238C9339C08C81BD
:10033000282F30E03E832D838D819E810097C9F068
:100340002D813E812130310559F5A1E3B0E0E1E393
:10035000F0E08081482F8B81282F30E081E090E011
:10036000022E02C0880F991F0A94E2F7842B8C9307
:1003700017C0A1E3B0E0E1E3F0E08081482F8B817A
:10038000282F30E081E090E0022E02C0880F991FF4
:100390000A94E2F7809584238C9302C081E08983DC
:1003A00089812E960FB6F894DEBF0FBECDBFCF91D8
:1003B000DF910895DF93CF93CDB7DEB72E970FB6B9
:1003C000F894DEBF0FBECDBF8A836B834C83198246
:1003D0008A81843008F00CC18B81883008F008C114
:1003E0008C81813021F08C81882309F001C18A81C0
:1003F000282F30E03E872D878D859E8581309105A1
:1004000009F44FC02D853E85223031052CF48D85B1
:100410009E85009771F0EEC02D853E852230310516
:1004200009F477C08D859E858330910509F4A9C0B4
:10043000E1C08C81282F30E03C872B878B859C8501
:100440000097D1F02B853C852130310509F0D2C0D1
:10045000ABE3B0E0EBE3F0E08081482F8B81282F05
:1004600030E081E090E0022E02C0880F991F0A94CC
:10047000E2F7842B8C93BEC0ABE3B0E0EBE3F0E09B
:100480008081482F8B81282F30E081E090E0022E80
:1004900002C0880F991F0A94E2F7809584238C93F9
:1004A000A9C08C81282F30E03A87298789859A85D1
:1004B0000097D1F029853A852130310509F09AC09D
:1004C000A8E3B0E0E8E3F0E08081482F8B81282F9B
:1004D00030E081E090E0022E02C0880F991F0A945C
:1004E000E2F7842B8C9386C0A8E3B0E0E8E3F0E069
:1004F0008081482F8B81282F30E081E090E0022E10
:1005000002C0880F991F0A94E2F7809584238C9388
:1005100071C08C81282F30E038872F838F81988598
:100520000097D1F02F8138852130310509F062C064
:10053000A5E3B0E0E5E3F0E08081482F8B81282F30
:1005400030E081E090E0022E02C0880F991F0A94EB
:10055000E2F7842B8C934EC0A5E3B0E0E5E3F0E036
:100560008081482F8B81282F30E081E090E0022E9F
:1005700002C0880F991F0A94E2F7809584238C9318
:1005800039C08C81282F30E03E832D838D819E8160
:100590000097C9F02D813E812130310559F5A2E344
:1005A000B0E0E2E3F0E08081482F8B81282F30E03B
:1005B00081E090E0022E02C0880F991F0A94E2F7B2
:1005C000842B8C9317C0A2E3B0E0E2E3F0E08081DB
:1005D000482F8B81282F30E081E090E0022E02C06E
:1005E000880F991F0A94E2F7809584238C9302C0A8
:1005F00081E0898389812E960FB6F894DEBF0FBE05
:10060000CDBFCF91DF910895DF93CF93CDB7DEB704
:1006100028970FB6F894DEBF0FBECDBF8B836C83D7
:100620005E834D831A828B81843008F09FC08C8159
:10063000883008F09BC08D819E81009709F496C098
:100640008B81282F30E038872F834F8158854130A8
:100650005105A9F18F8198858230910534F42F815D
:1006600038852115310571F083C04F81588542309E
:10067000510509F441C08F8198858330910509F4B3
:1006800058C076C0E9E3F0E08081282F30E08C810B
:10069000882F90E0A90102C0559547958A95E2F709
:1006A000CA01817089838981882321F4ED81FE81CB
:1006B00010825EC0ED81FE8181E0808359C0E8E355
:1006C000F0E08081282F30E08C81882F90E0A90114
:1006D00002C0559547958A95E2F7CA0181708983D2
:1006E0008981882321F4ED81FE81108241C0ED8152
:1006F000FE8181E080833CC0E5E3F0E08081282F2B
:1007000030E08C81882F90E0A90102C05595479573
:100710008A95E2F7CA01817089838981882321F44F
:10072000ED81FE81108224C0ED81FE8181E0808315
:100730001FC0E2E3F0E08081282F30E08C81882F19
:1007400090E0A90102C0559547958A95E2F7CA0144
:10075000817089838981882321F4ED81FE81108253
:1007600007C0ED81FE8181E0808302C081E08A8341
:100770008A8128960FB6F894DEBF0FBECDBFCF9109
:10078000DF910895DF93CF93CDB7DEB72D970FB6E6
:10079000F894DEBF0FBECDBF8A836B8319828A8136
:1007A000843008F084C08B81813021F08B818823D4
:1007B00009F07DC08A81282F30E03D872C878C8509
:1007C0009D858130910571F12C853D852230310563
:1007D0002CF48C859D85009769F06BC02C853D8538
:1007E00022303105B1F18C859D858330910509F466
:1007F00047C05FC08B81282F30E03B872A878A85DE
:100800009B85009759F02A853B852130310509F0F9
:1008100050C0EAE3F0E08FEF80834BC0EAE3F0E002
:10082000108247C08B81282F30E039872887888540
:100830009985009751F02885398521303105C9F512
:10084000E7E3F0E08FEF808334C0E7E3F0E010826D
:1008500030C08B81282F30E03F832E838E819F8193
:10086000009751F02E813F812130310511F5E4E3ED
:10087000F0E08FEF80831DC0E4E3F0E0108219C048
:100880008B81282F30E03D832C838C819D810097C4
:1008900051F02C813D812130310559F4E1E3F0E044
:1008A0008FEF808306C0E1E3F0E0108202C081E0B8
:1008B000898389812D960FB6F894DEBF0FBECDBF18
:1008C000CF91DF910895DF93CF9300D000D00F92A6
:1008D000CDB7DEB78A836B8319828A81843098F51D
:1008E0008A81282F30E03D832C838C819D8181304B
:1008F0009105D1F02C813D81223031052CF48C8181
:100900009D81009761F021C02C813D81223031050D
:1009100081F08C819D818330910581F016C0EBE3DD
:10092000F0E08B81808311C0E8E3F0E08B8180836D
:100930000CC0E5E3F0E08B81808307C0E2E3F0E0E8
:100940008B81808302C081E0898389810F900F9021
:100950000F900F900F90CF91DF910895DF93CF9379
:1009600000D000D000D0CDB7DEB78A837C836B8304
:1009700019828A81843008F03FC08B819C81009766
:10098000D9F18A81282F30E03E832D838D819E818D
:1009900081309105E1F02D813E81223031052CF42A
:1009A0008D819E81009761F029C02D813E8122308A
:1009B0003105A1F08D819E8183309105B1F01EC07B
:1009C000E9E3F0E08081EB81FC81808317C0E6E3FE
:1009D000F0E08081EB81FC81808310C0E3E3F0E0F4
:1009E0008081EB81FC81808309C0E0E3F0E08081BD
:1009F000EB81FC81808302C081E089838981269616
:100A00000FB6F894DEBF0FBECDBFCF91DF91089532
:040A1000F894FFCF88
:00000001FF
