:100000000C942A000C9445190C9478190C94AB1993
:100010000C9447000C9447000C9447000C948D15E9
:100020000C94C0150C94F3150C9426160C945916C8
:100030000C9447000C9447000C9447000C94470024
:100040000C9447000C9447000C9447000C94470014
:100050000C94470011241FBECFE5D8E0DEBFCDBF12
:1000600010E0A0E6B0E0E8E7FEE302C005900D92E4
:10007000A639B107D9F710E0A6E9B0E001C01D929A
:10008000AD3AB107E1F70E944F060C943A1F0C9469
:100090000000EF92FF920F931F937B018C0120E0F1
:1000A00030E040E05FE40E94F50388238CF0C80153
:1000B000B70120E030E040E05FE40E94C1010E940F
:1000C00055049B01AC01205030404040504806C0D0
:1000D000C801B7010E9455049B01AC01B901CA01D6
:1000E0001F910F91FF90EF900895A0E0B0E0EBE733
:1000F000F0E00C94031FDC012B01FA019C9192307B
:1001000008F439C1EB018881823008F433C194309E
:1001100069F4843009F02FC111969C91119789815F
:10012000981709F428C1A6E7B0E025C1843009F486
:1001300021C18230A9F4923009F01DC19A01AD01AC
:1001400088E0EA010990AE01E90109929E0181501F
:10015000C1F7E201898111969C918923818308C1AD
:10016000923009F407C112962D903C901397EB0141
:100170008A819B811496AD90BD90CD90DC901797AD
:10018000EC80FD800E811F819101281B390BB90184
:1001900037FF04C066277727621B730B6032710537
:1001A0000CF061C0121613066CF537014801062EDB
:1001B00004C096948794779467940A94D2F721E0C8
:1001C00030E040E050E004C0220F331F441F551FB1
:1001D0006A95D2F721503040404050402E213F21B7
:1001E00040235123211531054105510521F021E01E
:1001F00030E040E050E079018A01E628F72808293C
:1002000019293CC0232BD1F1260E371E350146019A
:10021000062E04C096948794779467940A94D2F734
:1002200021E030E040E050E004C0220F331F441FC3
:10023000551F6A95D2F721503040404050402A2146
:100240003B214C215D21211531054105510521F04E
:1002500021E030E040E050E059016A01A628B728CB
:10026000C828D9280BC0821593052CF01C01AA249C
:10027000BB24650103C0EE24FF24870111969C91E5
:10028000D20111968C91981709F445C0992339F041
:10029000A80197012A193B094C095D0906C0A6016E
:1002A00095012E193F09400B510B57FD08C01182D3
:1002B0003382228224833583468357831DC081E0A5
:1002C00081833382228288279927DC01821B930B4A
:1002D000A40BB50B84839583A683B7830DC0220F2F
:1002E000331F441F551F24833583468357838281E0
:1002F000938101979383828324813581468157813D
:10030000DA01C9010197A109B1098F5F9F4FAF4F72
:10031000BF4328F30BC0918333822282EA0CFB1C7B
:100320000C1D1D1DE482F5820683178383E0808304
:10033000248135814681578157FF1AC0C901AA27F8
:1003400097FDA095BA2F81709070A070B0705695EF
:10035000479537952795822B932BA42BB52B848318
:100360009583A683B7838281938101969383828349
:10037000DF0101C0D201CD01CDB7DEB7E2E10C94BF
:100380001F1FA0E2B0E0E7ECF1E00C940F1F6983BF
:100390007A838B839C832D833E834F835887E9E048
:1003A000EE2EF12CEC0EFD1ECE010196B7010E943F
:1003B0007E058E010F5E1F4FCE010596B8010E948B
:1003C0007E058A8991E089278A8BC701B801AE0131
:1003D000475E5F4F0E9475000E94A904A096E6E068
:1003E0000C942B1FA0E2B0E0E8EFF1E00C940F1F9B
:1003F00069837A838B839C832D833E834F835887C5
:10040000F9E0EF2EF12CEC0EFD1ECE010196B701A6
:100410000E947E058E010F5E1F4FCE010596B8012A
:100420000E947E05C701B801AE01475E5F4F0E9482
:1004300075000E94A904A096E6E00C942B1FA0E290
:10044000B0E0E5E2F2E00C94031F69837A838B83CA
:100450009C832D833E834F835887CE010196BE0136
:10046000675F7F4F0E947E05CE010596BE016F5EDD
:100470007F4F0E947E059985923088F0898982306D
:10048000C8F0943019F4823051F404C0843029F457
:10049000923081F486E790E0C6C0923049F420E0C3
:1004A0009A858A89981321E02A87CE010996BBC0D4
:1004B000823049F420E09A858A89981321E02A8BBA
:1004C000CE014196B0C02D843E844F8458886D88FB
:1004D0007E888F88988CEE24FF248701AA24BB2471
:1004E000650140E050E060E070E0E0E0F0E0C10174
:1004F00081709070892BE9F0E60CF71C081D191D1E
:100500009A01AB012A0D3B1D4C1D5D1D80E090E062
:10051000A0E0B0E0E614F7040805190520F481E036
:1005200090E0A0E0B0E0BA01A901480F591F6A1F8E
:100530007B1FAA0CBB1CCC1CDD1C97FE08C081E0F5
:1005400090E0A0E0B0E0A82AB92ACA2ADB2A3196B6
:10055000E032F10549F0660C771C881C991C569412
:10056000479437942794C3CFFA85EA892B893C892D
:100570008B859C85280F391F2E5F3F4F17C0CA01FE
:1005800081709070892B61F016950795F794E79428
:1005900080E090E0A0E0B0E8E82AF92A0A2B1B2BC3
:1005A00076956795579547952F5F3F4F77FDE7CF36
:1005B0000CC0440F551F661F771F17FD4160EE0CDE
:1005C000FF1C001F111F21503040403090E05907A0
:1005D00090E0690790E4790760F32B8F3C8FDB0193
:1005E000CA018F779070A070B07080349105A1051A
:1005F000B10561F447FD0AC0E114F10401051105DC
:1006000029F0405C5F4F6F4F7F4F40781A8EFE1786
:1006100011F081E08A8F4D8F5E8F6F8F78A383E01A
:10062000898FCE0149960E94A904A096E2E10C941C
:100630001F1FA8E1B0E0EFE1F3E00C940B1F69830A
:100640007A838B839C832D833E834F835887B9E0C5
:10065000EB2EF12CEC0EFD1ECE010196B7010E948F
:100660007E058E010F5E1F4FCE010596B8010E94D8
:100670007E052985223008F47EC03989323010F495
:10068000B8017CC08A859A8989278A87243011F02D
:10069000223031F4231709F06EC066E770E06EC0B7
:1006A000343039F41D861E861F86188A1C861B86E8
:1006B00004C0323021F484E08987B7015FC02B8504
:1006C0003C858B899C89281B390B3C872B87ED84C3
:1006D000FE840F851889AD88BE88CF88D88CEA142F
:1006E000FB040C051D0540F4EE0CFF1C001F111F40
:1006F000215030403C872B8720E030E040E050E044
:1007000080E090E0A0E0B0E460E070E0EA14FB0478
:100710000C051D0540F0282B392B4A2B5B2BEA18C2
:10072000FB080C091D09B695A79597958795EE0CC2
:10073000FF1C001F111F6F5F7F4F6F31710531F775
:10074000DA01C9018F779070A070B0708034910584
:10075000A105B10561F427FD0AC0E114F10401050A
:10076000110529F0205C3F4F4F4F5F4F20782D87B8
:100770003E874F87588BBE01675F7F4FCB010E943A
:10078000A9046896EAE00C94271FA8E1B0E0EBEC1E
:10079000F3E00C940F1F69837A838B839C832D83F2
:1007A0003E834F83588789E0E82EF12CEC0EFD1E26
:1007B000CE010196B7010E947E058E010F5E1F4F8C
:1007C000CE010596B8010E947E058985823040F0F1
:1007D0008989823028F0C701B8010E94F60501C05E
:1007E0008FEF6896E6E00C942B1FA8E1B0E0EBEFEA
:1007F000F3E00C940F1F69837A838B839C832D8392
:100800003E834F83588789E0E82EF12CEC0EFD1EC5
:10081000CE010196B7010E947E058E010F5E1F4F2B
:10082000CE010596B8010E947E058985823040F090
:100830008989823028F0C701B8010E94F60501C0FD
:100840008FEF6896E6E00C942B1FA8E1B0E0EBE296
:10085000F4E00C940F1F69837A838B839C832D8330
:100860003E834F83588789E0E82EF12CEC0EFD1E65
:10087000CE010196B7010E947E058E010F5E1F4FCB
:10088000CE010596B8010E947E058985823040F030
:100890008989823028F0C701B8010E94F60501C09D
:1008A00081E06896E6E00C942B1FACE0B0E0EBE54D
:1008B000F4E00C94131F69837A838B839C83CE01AD
:1008C0000196BE016B5F7F4F0E947E058D81823055
:1008D00061F1823050F1843021F48E81882351F10E
:1008E0002EC02F81388537FD20C06E812F31310514
:1008F0001CF06623F9F023C08EE190E0821B930B7D
:1009000029853A854B855C8504C056954795379572
:1009100027958A95D2F76623B1F05095409530958A
:1009200021953F4F4F4F5F4F0EC020E030E040E039
:1009300050E009C02FEF3FEF4FEF5FE704C020E02A
:1009400030E040E050E8B901CA012C96E2E00C9496
:100950002F1FDF92EF92FF920F931F93FC01E48011
:10096000F58006811781D1808081823048F480E053
:1009700090E0A0E1B0E0E82AF92A0A2B1B2BA5C0E1
:10098000843009F49FC0823021F4EE24FF248701D3
:1009900005C0E114F1040105110519F4E0E0F0E0EF
:1009A00096C0628173819FEF623879070CF05BC05B
:1009B00022E83FEF261B370B2A3131052CF020E0CF
:1009C00030E040E050E02AC0B801A701022E04C088
:1009D00076956795579547950A94D2F781E090E010
:1009E000A0E0B0E004C0880F991FAA1FBB1F2A9582
:1009F000D2F70197A109B1098E219F21A023B1232C
:100A00000097A105B10521F081E090E0A0E0B0E001
:100A10009A01AB01282B392B4A2B5B2BDA01C90138
:100A20008F779070A070B07080349105A105B105EA
:100A300039F427FF09C0205C3F4F4F4F5F4F04C080
:100A4000215C3F4F4F4F5F4FE0E0F0E02030A0E0EF
:100A50003A07A0E04A07A0E45A0710F0E1E0F0E00E
:100A600079018A0127C06038710564F5FB01E158FE
:100A7000FF4FD801C7018F779070A070B07080349D
:100A80009105A105B10539F4E7FE0DC080E490E0C1
:100A9000A0E0B0E004C08FE390E0A0E0B0E0E80E9A
:100AA000F91E0A1F1B1F17FF05C016950795F7941F
:100AB000E794319687E016950795F794E7948A9521
:100AC000D1F705C0EE24FF248701EFEFF0E06E2F91
:100AD000679566276795902F9F77D794DD24D794E5
:100AE0008E2F8695492F462B582F5D29B701CA01B5
:100AF0001F910F91FF90EF90DF900895FC01DB01B3
:100B0000408151812281622F6F7770E0221F22275E
:100B1000221F9381892F880F822B282F30E0991F65
:100B20009927991F11969C93119721153105A9F5C5
:100B3000411551056105710511F482E037C082E865
:100B40009FEF13969C938E9312979A01AB0167E0E7
:100B5000220F331F441F551F6A95D1F783E08C93F2
:100B60000DC0220F331F441F551F12968D919C916B
:100B70001397019713969C938E931297203080E0E1
:100B8000380780E0480780E4580758F314962D93FF
:100B90003D934D935C93179708952F3F310579F45A
:100BA000411551056105710519F484E08C93089590
:100BB00064FF03C081E08C9312C01C9210C02F57B9
:100BC000304013963C932E93129783E08C9387E0EA
:100BD000440F551F661F771F8A95D1F770641496CE
:100BE0004D935D936D937C93179708951F93DC014C
:100BF000FB019C91923008F447C08081823008F458
:100C000043C0943051F411961C91843099F5818140
:100C1000682F70E0611B71093FC0843021F0923071
:100C200031F48230B9F18181882389F12DC0119688
:100C30001C9111978230F1F081811817D9F4129626
:100C40002D913C911397828193818217930794F0A1
:100C500028173907BCF014968D919D910D90BC9189
:100C6000A02D2481358146815781281739074A07ED
:100C70005B0718F4112341F00AC082179307A407F9
:100C8000B50740F4112319F061E070E005C06FEF83
:100C90007FEF02C060E070E0CB011F910895DF9309
:100CA000CF93CDB7DEB70E94E00B81E063E041E077
:100CB0000E94031A80E40E94E51480E064E042E0B0
:100CC0000E941F1181E060E042E00E941F1189EC48
:100CD00096E060E00E941D1980E063E00E94AA1681
:100CE0000E948C168091960090919700009731F4A5
:100CF00080919800909199000097A1F380E060E0C6
:100D00000E94AC0B80E690E00E940B0B80E06CE050
:100D10000E94AC0B8091960090919700880F991FCC
:100D2000880F991F880F991F929582958F70892738
:100D30009F708927CC01A0E0B0E0BC01CD010E94EA
:100D4000350B81E060E00E94AC0B8CE690E00E94E5
:100D50000B0B81E06AE00E94AC0B809198009091AF
:100D60009900880F991F880F991F880F991F9295D6
:100D700082958F7089279F708927CC01A0E0B0E011
:100D8000BC01CD010E94350B80E090E0CF91DF9156
:100D90000895DF93CF93CDB7DEB780919A008F5F30
:100DA00080939A0080919A00813031F481E060E074
:100DB00070E00E9474142CC080919A00823059F423
:100DC00026E930E081E0B9010E94A91480E062E0E8
:100DD0000E940E181DC080919A008330C9F428E942
:100DE00030E081E0B9010E94A9142091980030916F
:100DF00099008091960090919700A901481B590B8A
:100E0000CA01909399008093980080E00E94CE17C9
:100E1000CF91DF910895DF93CF93CDB7DEB7E19700
:100E20000FB6F894DEBF0FBECDBF89AB80E061E0A6
:100E300040E00E942D1B80E060E040E00E942D1BFE
:100E400089A9982F991F9927991F80E066E0492F5B
:100E50000E942D1B89A98295869586958370982F6F
:100E6000917080E065E0492F0E942D1B89A9829531
:100E700086958770982F917080E064E0492F0E94DA
:100E80002D1B89A982958F70982F917080E063E067
:100E9000492F0E942D1B80E062E041E00E942D1B43
:100EA00080E090E0A0E8BFE38DA79EA7AFA7B8AB16
:100EB0006DA57EA58FA598A92BEA3AEA4AEA50E4E7
:100EC0000E941F02DC01CB0189A79AA7ABA7BCA790
:100ED00069A57AA58BA59CA520E030E040E85FE3FA
:100EE0000E94250488231CF481E088A791C069A58D
:100EF0007AA58BA59CA520E030E04FE753E40E9443
:100F0000C50318160CF07BC06DA57EA58FA598A90A
:100F100020E030E04AE754E40E941903DC01CB01F1
:100F20008CA39DA3AEA3BFA36CA17DA18EA19FA105
:100F300020E030E04AE755E40E941F02DC01CB01CB
:100F400088A399A3AAA3BBA368A179A18AA19BA105
:100F500020E030E040E85FE30E94250488232CF481
:100F600081E090E09F8F8E8F3FC068A179A18AA118
:100F70009BA120E03FEF4FE757E40E94C5031816FE
:100F80004CF56CA17DA18EA19FA120E030E040E254
:100F900051E40E941F02DC01CB01BC01CD010E9483
:100FA0004900DC01CB019F8F8E8F0FC080E991E05B
:100FB0009D8F8C8F8C8D9D8D0197F1F79D8F8C8FE0
:100FC0008E8D9F8D01979F8F8E8F8E8D9F8D009719
:100FD00069F724C068A179A18AA19BA10E94490058
:100FE000DC01CB019F8F8E8F8E8D9F8D9B8F8A8F83
:100FF0008A8D9B8D0197F1F79B8F8A8F0FC069A512
:101000007AA58BA59CA50E944900DC01CB0188A78D
:1010100088A5898F898D8A95F1F7898F80E062E0B4
:1010200040E00E942D1B89A9869586958695982F6C
:10103000917080E066E0492F0E942D1B89A986955A
:101040008695982F917080E065E0492F0E942D1BB6
:1010500089A98695982F917080E064E0492F0E94BD
:101060002D1B89A9982F917080E063E0492F0E9481
:101070002D1B80E062E041E00E942D1B80E090E0AB
:10108000A0E8BFE38D8B9E8BAF8BB88F6D897E8977
:101090008F89988D2BEA3AEA4AEA50E40E941F02AF
:1010A000DC01CB01898B9A8BAB8BBC8B69897A89EC
:1010B0008B899C8920E030E040E85FE30E942504B2
:1010C00088231CF481E0888B91C069897A898B8997
:1010D0009C8920E030E04FE753E40E94C5031816D6
:1010E0000CF07BC06D897E898F89988D20E030E07F
:1010F0004AE754E40E941903DC01CB018C879D87E9
:10110000AE87BF876C857D858E859F8520E030E02A
:101110004AE755E40E941F02DC01CB0188879987CA
:10112000AA87BB87688579858A859B8520E030E022
:1011300040E85FE30E94250488232CF481E090E0DE
:101140009F838E833FC0688579858A859B8520E053
:101150003FEF4FE757E40E94C50318164CF56C8526
:101160007D858E859F8520E030E040E251E40E943D
:101170001F02DC01CB01BC01CD010E944900DC0152
:10118000CB019F838E830FC080E991E09D838C8388
:101190008C819D810197F1F79D838C838E819F8146
:1011A00001979F838E838E819F81009769F724C06A
:1011B000688579858A859B850E944900DC01CB0181
:1011C0009F838E838E819F819B838A838A819B816B
:1011D0000197F1F79B838A830FC069897A898B898C
:1011E0009C890E944900DC01CB01888B8889898316
:1011F00089818A95F1F7898380E062E040E00E946E
:101200002D1B81E0E1960FB6F894DEBF0FBECDBF77
:10121000CF91DF910895DF93CF93CDB7DEB7E197FC
:101220000FB6F894DEBF0FBECDBF89AB80E061E0A2
:1012300041E00E942D1B80E060E040E00E942D1BF9
:1012400089A9982F991F9927991F80E066E0492F57
:101250000E942D1B89A98295869586958370982F6B
:10126000917080E065E0492F0E942D1B89A982952D
:1012700086958770982F917080E064E0492F0E94D6
:101280002D1B89A982958F70982F917080E063E063
:10129000492F0E942D1B80E062E041E00E942D1B3F
:1012A00080E090E0A0E8BFE38DA79EA7AFA7B8AB12
:1012B0006DA57EA58FA598A92BEA3AEA4AEA50E4E3
:1012C0000E941F02DC01CB0189A79AA7ABA7BCA78C
:1012D00069A57AA58BA59CA520E030E040E85FE3F6
:1012E0000E94250488231CF481E088A791C069A589
:1012F0007AA58BA59CA520E030E04FE753E40E943F
:10130000C50318160CF07BC06DA57EA58FA598A906
:1013100020E030E04AE754E40E941903DC01CB01ED
:101320008CA39DA3AEA3BFA36CA17DA18EA19FA101
:1013300020E030E04AE755E40E941F02DC01CB01C7
:1013400088A399A3AAA3BBA368A179A18AA19BA101
:1013500020E030E040E85FE30E94250488232CF47D
:1013600081E090E09F8F8E8F3FC068A179A18AA114
:101370009BA120E03FEF4FE757E40E94C5031816FA
:101380004CF56CA17DA18EA19FA120E030E040E250
:1013900051E40E941F02DC01CB01BC01CD010E947F
:1013A0004900DC01CB019F8F8E8F0FC080E991E057
:1013B0009D8F8C8F8C8D9D8D0197F1F79D8F8C8FDC
:1013C0008E8D9F8D01979F8F8E8F8E8D9F8D009715
:1013D00069F724C068A179A18AA19BA10E94490054
:1013E000DC01CB019F8F8E8F8E8D9F8D9B8F8A8F7F
:1013F0008A8D9B8D0197F1F79B8F8A8F0FC069A50E
:101400007AA58BA59CA50E944900DC01CB0188A789
:1014100088A5898F898D8A95F1F7898F80E062E0B0
:1014200040E00E942D1B89A9869586958695982F68
:10143000917080E066E0492F0E942D1B89A9869556
:101440008695982F917080E065E0492F0E942D1BB2
:1014500089A98695982F917080E064E0492F0E94B9
:101460002D1B89A9982F917080E063E0492F0E947D
:101470002D1B80E062E041E00E942D1B80E090E0A7
:10148000A0E8BFE38D8B9E8BAF8BB88F6D897E8973
:101490008F89988D2BEA3AEA4AEA50E40E941F02AB
:1014A000DC01CB01898B9A8BAB8BBC8B69897A89E8
:1014B0008B899C8920E030E040E85FE30E942504AE
:1014C00088231CF481E0888B91C069897A898B8993
:1014D0009C8920E030E04FE753E40E94C5031816D2
:1014E0000CF07BC06D897E898F89988D20E030E07B
:1014F0004AE754E40E941903DC01CB018C879D87E5
:10150000AE87BF876C857D858E859F8520E030E026
:101510004AE755E40E941F02DC01CB0188879987C6
:10152000AA87BB87688579858A859B8520E030E01E
:1015300040E85FE30E94250488232CF481E090E0DA
:101540009F838E833FC0688579858A859B8520E04F
:101550003FEF4FE757E40E94C50318164CF56C8522
:101560007D858E859F8520E030E040E251E40E9439
:101570001F02DC01CB01BC01CD010E944900DC014E
:10158000CB019F838E830FC080E991E09D838C8384
:101590008C819D810197F1F79D838C838E819F8142
:1015A00001979F838E838E819F81009769F724C066
:1015B000688579858A859B850E944900DC01CB017D
:1015C0009F838E838E819F819B838A838A819B8167
:1015D0000197F1F79B838A830FC069897A898B8988
:1015E0009C890E944900DC01CB01888B8889898312
:1015F00089818A95F1F7898380E062E040E00E946A
:101600002D1B81E0E1960FB6F894DEBF0FBECDBF73
:10161000CF91DF910895DF93CF9300D00F92CDB794
:10162000DEB79B838A8319820EC08981282F30E020
:101630008A819B81FC01E20FF31F80810E940B09CC
:1016400089818F5F89838981282F30E08A819B81FE
:10165000FC01E20FF31F8081882339F781E00F90AE
:101660000F900F90CF91DF9108950F931F93DF9309
:10167000CF93CDB7DEB760970FB6F894DEBF0FBE3D
:10168000CDBF6D877E878F87988B1A8219828D8553
:101690009E85AF85B8890097A105B10589F580E3DE
:1016A0000E940B094DC08A81082F10E08D859E8510
:1016B000AF85B8892AE030E040E050E0BC01CD01C0
:1016C0000E94E11EDC01CB01282FCE010396FC0114
:1016D000E00FF11F20838D859E85AF85B8892AE0B4
:1016E00030E040E050E0BC01CD010E94E11EDA0193
:1016F000C9018D879E87AF87B88B8A818F5F8A8368
:101700008D859E85AF85B8890097A105B10559F6ED
:101710008A818150898311C08981282F332727FD31
:101720003095CE010396FC01E20FF31F8081805DAE
:101730000E940B098981815089838981882364F7FC
:1017400081E060960FB6F894DEBF0FBECDBFCF919B
:10175000DF911F910F910895DF93CF9300D000D0B8
:101760000F92CDB7DEB789836A838A818832F0F41D
:101770008981282F30E03D832C838C819D810097C7
:1017800031F02C813D812130310531F00AC08A8150
:1017900080580E940B0707C08A8180540E940B0763
:1017A00002C01B8204C031E03B8301C01B828B81DD
:1017B0000F900F900F900F900F90CF91DF910895A1
:1017C0000F931F93DF93CF93CDB7DEB7CC54D040A8
:1017D0000FB6F894DEBF0FBECDBF80E061E041E000
:1017E0000E94031A80E060E041E00E94031A80E05A
:1017F00062E041E00E94031A80E066E041E00E945E
:10180000031A80E065E041E00E94031A80E064E092
:1018100041E00E94031A80E063E041E00E94031A65
:10182000FE01E75BFF4F80E090E0ACE0B2E4808334
:101830009183A283B3838E010B5B1F4FFE01E75B95
:10184000FF4F608171818281938120E030E04AE71F
:1018500055E40E941F02DC01CB01F80180839183D3
:10186000A283B383FE01EB5BFF4F608171818281B4
:10187000938120E030E040E85FE30E942504882364
:1018800044F4FE01ED5BFF4F81E090E091838083A3
:1018900064C0FE01EB5BFF4F6081718182819381A7
:1018A00020E03FEF4FE757E40E94C50318160CF005
:1018B00043C0FE01E75BFF4F6081718182819381AC
:1018C00020E030E040E251E40E941F02DC01CB0145
:1018D0008E010D5B1F4FBC01CD010E944900DC0150
:1018E000CB01F801918380831FC0FE01EF5BFF4FA6
:1018F00080E991E091838083FE01EF5BFF4F80815F
:1019000091810197F1F7FE01EF5BFF4F9183808397
:10191000DE01AD5BBF4FFE01ED5BFF4F808191812A
:10192000019711969C938E93FE01ED5BFF4F808192
:1019300091810097D1F624C08E010D5B1F4FFE01EF
:10194000EB5BFF4F60817181828193810E9449002E
:10195000DC01CB01F80191838083FE01ED5BFF4F39
:1019600080819181FE01FF9691838083FE01FF9625
:10197000808191810197F1F7FE01FF969183808329
:1019800083E30E940B0782E30E940B0788E20E9418
:101990000B0780E090E0A0E2B2E48BAF9CAFADAF6C
:1019A000BEAF6BAD7CAD8DAD9EAD2BEA3AEA4AEA97
:1019B00050E40E941F02DC01CB018FAB98AFA9AFAE
:1019C000BAAF6FA978AD89AD9AAD20E030E040E8BC
:1019D0005FE30E94250488231CF481E08EAB91C054
:1019E0006FA978AD89AD9AAD20E030E04FE753E4C0
:1019F0000E94C50318160CF07BC06BAD7CAD8DAD9D
:101A00009EAD20E030E04AE754E40E941903DC0177
:101A1000CB018AAB9BABACABBDAB6AA97BA98CA954
:101A20009DA920E030E04AE755E40E941F02DC0156
:101A3000CB018EA79FA7A8ABB9AB6EA57FA588A940
:101A400099A920E030E040E85FE30E942504882364
:101A50002CF481E090E09DA78CA73FC06EA57FA5E8
:101A600088A999A920E03FEF4FE757E40E94C503FA
:101A700018164CF56AA97BA98CA99DA920E030E035
:101A800040E251E40E941F02DC01CB01BC01CD0108
:101A90000E944900DC01CB019DA78CA70FC080E903
:101AA00091E09BA78AA78AA59BA50197F1F79BA721
:101AB0008AA78CA59DA501979DA78CA78CA59DA500
:101AC000009769F724C06EA57FA588A999A90E94EF
:101AD0004900DC01CB019DA78CA78CA59DA599A7EA
:101AE00088A788A599A50197F1F799A788A70FC09E
:101AF0006FA978AD89AD9AAD0E944900DC01CB0198
:101B00008EAB8EA98FA38FA18A95F1F78FA38FE05B
:101B10000E940B0780E090E0A0E2B2E48BA39CA3BC
:101B2000ADA3BEA36BA17CA18DA19EA12BEA3AEA35
:101B30004AEA50E40E941F02DC01CB018F8F98A378
:101B4000A9A3BAA36F8D78A189A19AA120E030E062
:101B500040E85FE30E94250488231CF481E08E8F17
:101B600091C06F8D78A189A19AA120E030E04FE764
:101B700053E40E94C50318160CF07BC06BA17CA136
:101B80008DA19EA120E030E04AE754E40E941903B1
:101B9000DC01CB018A8F9B8FAC8FBD8F6A8D7B8DD3
:101BA0008C8D9D8D20E030E04AE755E40E941F02B5
:101BB000DC01CB018E8B9F8BA88FB98F6E897F89BB
:101BC000888D998D20E030E040E85FE30E94250495
:101BD00088232CF481E090E09D8B8C8B3FC06E8934
:101BE0007F89888D998D20E03FEF4FE757E40E9471
:101BF000C50318164CF56A8D7B8D8C8D9D8D20E06C
:101C000030E040E251E40E941F02DC01CB01BC0144
:101C1000CD010E944900DC01CB019D8B8C8B0FC054
:101C200080E991E09B8B8A8B8A899B890197F1F7E8
:101C30009B8B8A8B8C899D8901979D8B8C8B8C8942
:101C40009D89009769F724C06E897F89888D998D59
:101C50000E944900DC01CB019D8B8C8B8C899D8976
:101C6000998B888B888999890197F1F7998B888B53
:101C70000FC06F8D78A189A19AA10E944900DC0153
:101C8000CB018E8F8E8D8F878F858A95F1F78F8709
:101C900081E00E940B0780E090E0A0E0B0E48B8739
:101CA0009C87AD87BE876B857C858D859E8520E072
:101CB00030E04AE755E40E941F02DC01CB018F832C
:101CC0009887A987BA876F81788589859A8520E06A
:101CD00030E040E85FE30E94250488232CF481E093
:101CE00090E09E838D833FC06F81788589859A853A
:101CF00020E03FEF4FE757E40E94C50318164CF56C
:101D00006B857C858D859E8520E030E040E251E446
:101D10000E941F02DC01CB01BC01CD010E944900E1
:101D2000DC01CB019E838D830FC080E991E09C8311
:101D30008B838B819C810197F1F79C838B838D81B1
:101D40009E8101979E838D838D819E81009769F787
:101D500014C06F81788589859A850E944900DC01CD
:101D6000CB019E838D838D819E819A838983898116
:101D70009A810197F1F79A83898386E00E940B0785
:101D800081E0C45BDF4F0FB6F894DEBF0FBECDBF5E
:101D9000CF91DF911F910F910895DF93CF93CDB72E
:101DA000DEB72E970FB6F894DEBF0FBECDBF81E031
:101DB0000E940B0780E090E0A0E0B0E48B879C8756
:101DC000AD87BE876B857C858D859E8520E030E064
:101DD0004AE755E40E941F02DC01CB018F839887FC
:101DE000A987BA876F81788589859A8520E030E058
:101DF00040E85FE30E94250488232CF481E090E012
:101E00009E838D833FC06F81788589859A8520E088
:101E10003FEF4FE757E40E94C50318164CF56B855A
:101E20007C858D859E8520E030E040E251E40E9473
:101E30001F02DC01CB01BC01CD010E944900DC0185
:101E4000CB019E838D830FC080E991E09C838B83BF
:101E50008B819C810197F1F79C838B838D819E817F
:101E600001979E838D838D819E81009769F714C0B1
:101E70006F81788589859A850E944900DC01CB01B4
:101E80009E838D838D819E819A83898389819A81A6
:101E90000197F1F79A83898381E02E960FB6F89423
:101EA000DEBF0FBECDBFCF91DF910895DF93CF93FB
:101EB00000D000D00F92CDB7DEB78A837C836B83CE
:101EC0008B819C81009749F18A81883030F58A8125
:101ED000882F90E00896880F991F880F991F880F08
:101EE000991F0E940B0719820EC08981282F30E0AC
:101EF0008B819C81FC01E20FF31F80810E940B0902
:101F000089818F5F89838981883078F380E060E000
:101F10000E94AC0B81E08D8302C081E08D838D81B6
:101F20000F900F900F900F900F90CF91DF91089529
:101F3000DF93CF930F92CDB7DEB7198233C089817B
:101F4000882F90E0FC01E257FF4F908181E0692FDC
:101F500041E00E94031A8981882F90E0FC01E2573A
:101F6000FF4F908181E0692F41E00E942D1B898104
:101F7000882F90E0FC01EE56FF4F908183E0692F9F
:101F800040E00E94031A8981882F90E0FC01EE5600
:101F9000FF4F908183E0692F41E00E942D1B8981D2
:101FA0008F5F89838981843050F281E00F90CF91D7
:101FB000DF910895DF93CF93CDB7DEB765970FB666
:101FC000F894DEBF0FBECDBF9D8B8C8B81E08A8BDA
:101FD0001B8A1F868C899D89009709F4F0C0EC89C3
:101FE000FD898FEF8083198AE5C08989882F90E069
:101FF000FC01E257FF4F908181E0692F40E00E9491
:102000002D1B188AC1C08889882F90E0FC01EE56EC
:10201000FF4F90819E012D5E3F4F83E0692FA90104
:102020000E94571C8B89882309F0ABC080E090E0A8
:10203000A0EAB1E48B879C87AD87BE876B857C85E2
:102040008D859E8520E030E04AE755E40E941F021E
:10205000DC01CB018F839887A987BA876F81788548
:1020600089859A8520E030E040E85FE30E942504FE
:1020700088232CF481E090E09E838D833FC06F81A4
:10208000788589859A8520E03FEF4FE757E40E94E5
:10209000C50318164CF56B857C858D859E8520E0E3
:1020A00030E040E251E40E941F02DC01CB01BC01A0
:1020B000CD010E944900DC01CB019E838D830FC0BE
:1020C00080E991E09C838B838B819C810197F1F760
:1020D0009C838B838D819E8101979E838D838D81CF
:1020E0009E81009769F714C06F81788589859A85EC
:1020F0000E944900DC01CB019E838D838D819E81EE
:102100009A83898389819A810197F1F79A838983D8
:102110008889882F90E0FC01EE56FF4F90819E0148
:102120002D5E3F4F83E0692FA9010E94571C0FC00D
:102130008889882F90E0FC01EE56FF4F90819E0128
:102140002D5E3F4F83E0692FA9010E94571C8B89A8
:10215000882371F38989482F50E08889282F30E03F
:10216000CA01880F991F880F991F820F931FFC01C6
:10217000E258FF4F8081EC89FD89808381E08F8761
:1021800007C088898F5F888B8889843008F43BCFAB
:102190008989882F90E0FC01E257FF4F908181E010
:1021A000692F41E00E942D1B8F85882349F489897E
:1021B0008F5F898B8989843008F417CF01C01A8A10
:1021C0008A8965960FB6F894DEBF0FBECDBFCF915A
:1021D000DF910895DF93CF9300D0CDB7DEB78A8328
:1021E00081E089838A81883080F4A1E4B0E0E1E471
:1021F000F0E090818A81892B8C93A1E4B0E0E1E446
:10220000F0E0808188608C9301C0198289810F90F1
:102210000F90CF91DF910895DF93CF930F92CDB7B9
:10222000DEB7A1E4B0E0E1E4F0E0808188618C9366
:10223000E1E4F0E010820F90CF91DF910895DF93F9
:10224000CF93CDB7DEB72A970FB6F894DEBF0FBE97
:10225000CDBF8A836B834C8381E089838A818230FE
:1022600008F0E4C18B81873008F0E0C18C818830B0
:1022700008F0DCC18A81282F30E03A8729878985D8
:102280009A85009739F029853A852130310509F47E
:10229000D9C0CDC18B81282F30E038872F838F8123
:1022A00098858330910509F44EC02F8138852430FC
:1022B000310554F48F8198850097C9F02F813885B6
:1022C0002130310551F1B2C08F819885853091055B
:1022D00009F473C02F813885253031050CF450C0C6
:1022E0008F8198858630910509F484C09FC0A3E54D
:1022F000B0E0E3E5F0E080818F7B8C93A3E5B0E074
:10230000E3E5F0E08081877F8C93A9E5B0E0E9E523
:10231000F0E0808181608C9389C0A3E5B0E0E3E5C3
:10232000F0E080818F7B8C93A3E5B0E0E3E5F0E003
:10233000808188608C93A9E5B0E0E9E5F0E08081D8
:1023400082608C9373C0A3E5B0E0E3E5F0E08081A8
:1023500080648C93A3E5B0E0E3E5F0E080818860E1
:102360008C93A3E5B0E0E3E5F0E0808180628C939C
:10237000A3E5B0E0E3E5F0E0808180618C9356C096
:10238000A3E5B0E0E3E5F0E0808180648C93A3E511
:10239000B0E0E3E5F0E0808188608C93A3E5B0E0F5
:1023A000E3E5F0E0808180628C93A3E5B0E0E3E5B3
:1023B000F0E080818F7E8C9339C0A3E5B0E0E3E547
:1023C000F0E0808180648C93A3E5B0E0E3E5F0E089
:1023D0008081877F8C93A3E5B0E0E3E5F0E0808126
:1023E00080628C93A3E5B0E0E3E5F0E0808180615A
:1023F0008C931CC0A3E5B0E0E3E5F0E0808180644D
:102400008C93A3E5B0E0E3E5F0E08081877F8C93D7
:10241000A3E5B0E0E3E5F0E0808180628C93A3E582
:10242000B0E0E3E5F0E080818F7E8C93A3E5B0E03F
:10243000E3E5F0E090818C81892B8C938C818093F3
:10244000A500F5C08B81282F30E03E832D838D8140
:102450009E818230910509F464C02D813E81233034
:10246000310554F48D819E81009799F02D813E8134
:102470002130310591F1CEC08D819E81843091054E
:1024800009F473C02D813E812630310509F498C0CE
:10249000C1C0AFE4B0E0EFE4F0E080818E7F8C93C8
:1024A000AFE4B0E0EFE4F0E080818D7F8C93AEE4A8
:1024B000B0E0EEE4F0E08081877F8C93AEE4B0E0A2
:1024C000EEE4F0E080818F7E8C93A9E5B0E0E9E551
:1024D000F0E0808184608C939DC0AFE4B0E0EFE4D5
:1024E000F0E080818E7F8C93AFE4B0E0EFE4F0E029
:1024F00080818D7F8C93AEE4B0E0EEE4F0E08081EB
:1025000088608C93AEE4B0E0EEE4F0E080818F7EF2
:102510008C93A9E5B0E0E9E5F0E0808180618C93DF
:1025200079C0AFE4B0E0EFE4F0E080818E7F8C937F
:10253000AFE4B0E0EFE4F0E080818D7F8C93AEE417
:10254000B0E0EEE4F0E08081877F8C93AEE4B0E011
:10255000EEE4F0E080818F7E8C93A9E5B0E0E9E5C0
:10256000F0E0808188608C9355C0AFE4B0E0EFE488
:10257000F0E080818E7F8C93AFE4B0E0EFE4F0E098
:10258000808182608C93AEE4B0E0EEE4F0E0808184
:1025900088608C93AEE4B0E0EEE4F0E0808180618E
:1025A0008C93AFE4B0E0EFE4F0E0808180688C933E
:1025B000AFE4B0E0EFE4F0E080818F7B8C932AC041
:1025C000AFE4B0E0EFE4F0E0808181608C93AFE4B1
:1025D000B0E0EFE4F0E0808182608C93AEE4B0E0A4
:1025E000EEE4F0E08081877F8C93AEE4B0E0EEE42F
:1025F000F0E0808180618C93AFE4B0E0EFE4F0E044
:10260000808180688C93AFE4B0E0EFE4F0E08081FB
:102610008F7B8C93AEE4B0E0EEE4F0E090818C81AF
:10262000892B8C938C818093A60001C019828981AB
:102630002A960FB6F894DEBF0FBECDBFCF91DF91C3
:102640000895DF93CF93CDB7DEB729970FB6F894EF
:10265000DEBF0FBECDBF8A837C836B834D8381E059
:10266000898319868A81823010F421E029871886AF
:102670008B819C81009711F031E03887898598859E
:10268000892391E08927882361F58D81873048F57A
:102690008A81282F30E03F832E838E819F8100978F
:1026A00031F02E813F812130310571F01BC08D81C9
:1026B000882F90E0880F991FFC01E556FF4F8B8112
:1026C0009C81918380830EC08D81882F90E0880F3C
:1026D000991FFC01E156FF4F8B819C819183808380
:1026E00001C01982898129960FB6F894DEBF0FBE0A
:1026F000CDBFCF91DF910895DF93CF9300D000D06D
:102700000F92CDB7DEB78A836B8381E089838B819B
:102710008830C0F58A818230A8F58A81282F30E080
:102720003D832C838C819D81009731F02C813D81EC
:1027300021303105A1F027C0A3E5B0E0E3E5F0E0EA
:102740008081887F8C93A3E5B0E0E3E5F0E09081A1
:102750008B81892B8C938B818093A50014C0AEE470
:10276000B0E0EEE4F0E08081887F8C93AEE4B0E0EE
:10277000EEE4F0E090818B81892B8C938B818093A8
:10278000A60001C0198289810F900F900F900F90C1
:102790000F90CF91DF910895EF92FF920F931F93C7
:1027A000DF93CF93CDB7DEB72D970FB6F894DEBF8A
:1027B0000FBECDBF69877A878B879C87A3E5B0E082
:1027C000E3E5F0E090818091A500892B8C9380E86F
:1027D00090E098878F8389859A85AB85BC8528EEA4
:1027E00033E040E050E0BC01CD010E94C21E7B01FD
:1027F0008C018F8198859C0140E050E0C801B701B1
:102800000E94E11EDA01C9019E838D8389859A8524
:10281000AB85BC8528EE33E040E050E0BC01CD0143
:102820000E94C21E7B018C018F8198859C0140E033
:1028300050E0C801B7010E94E11EDC01CB01880F06
:10284000991FAA1FBB1F880F991FAA1FBB1F880FA4
:10285000991FAA1FBB1F880F991FAA1FBB1F68942F
:1028600012F8B695A795979587951694D1F79C83FE
:102870008B83E2E5F0E08B81819580831A82198257
:1028800015C0A8E5B0E0E8E5F0E0808181608C93B8
:1028900089819A8101969A838983E8E5F0E08081B5
:1028A000882F90E081709070882359F78D819E81E8
:1028B0009C012F5F3F4F89819A812817390769F75B
:1028C000A3E5B0E0E3E5F0E08081887F8C932D966E
:1028D0000FB6F894DEBF0FBECDBFCF91DF911F9131
:1028E0000F91FF90EF900895DF93CF9300D000D029
:1028F00000D0CDB7DEB78A837C836B8381E0898388
:102900008A818330D8F48A81282F30E03E832D835A
:102910008D819E81009731F02D813E8121303105DE
:1029200031F00DC0E2E5F0E08B81808308C0ECE47B
:10293000F0E08B819C819183808301C01982898121
:1029400026960FB6F894DEBF0FBECDBFCF91DF91B4
:102950000895DF93CF9300D000D000D0CDB7DEB77D
:102960008A837C836B8381E089838A81833010F53D
:102970008A81282F30E03E832D838D819E810097B0
:1029800031F02D813E812130310559F014C0E2E54E
:10299000F0E08081882F90E0EB81FC81918380833F
:1029A0000AC0ECE4F0E080819181EB81FC819183AD
:1029B000808301C01982898126960FB6F894DEBF04
:1029C0000FBECDBFCF91DF910895DF93CF930F92CC
:1029D000CDB7DEB78983ECE5F0E08981808381E0C3
:1029E0000F90CF91DF910895DF93CF9300D00F9296
:1029F000CDB7DEB79A838983E6E4F0E089819A81D6
:102A0000918380830F900F900F90CF91DF91089565
:102A1000DF93CF9300D000D000D0CDB7DEB78A834C
:102A20007C836B8381E089838A818230E8F48A81A8
:102A3000282F30E03E832D838D819E81009731F0D9
:102A40002D813E812130310541F00FC0EAE4F0E0F4
:102A50008B819C819183808308C0E8E4F0E08B81C6
:102A60009C819183808301C01982898126960FB64B
:102A7000F894DEBF0FBECDBFCF91DF910895DF93F5
:102A8000CF9300D000D0CDB7DEB78A8381E08983B1
:102A90008A818230C8F58A81282F30E03C832B83DD
:102AA0008B819C81009731F0EB81FC81E130F10555
:102AB00081F02BC0A3E5B0E0E3E5F0E08081887F02
:102AC0008C93A2E5B0E0ECE5F0E0108280818C937D
:102AD0001CC0AEE4B0E0EEE4F0E08081887F8C932F
:102AE0002CE430E0AAE4B0E0E8E4F0E011821082E7
:102AF0008081918111969C938E938D919C911197D9
:102B0000F9019183808301C0198289810F900F9010
:102B10000F900F90CF91DF9108951F920F920FB6F3
:102B20000F9211242F933F934F935F936F937F9353
:102B30008F939F93AF93BF93EF93FF93DF93CF93C5
:102B4000CDB7DEB78091A1009091A200009729F047
:102B5000E091A100F091A2000995CF91DF91FF9142
:102B6000EF91BF91AF919F918F917F916F915F9105
:102B70004F913F912F910F900FBE0F901F9018957E
:102B80001F920F920FB60F9211242F933F934F93E2
:102B90005F936F937F938F939F93AF93BF93EF93C5
:102BA000FF93DF93CF93CDB7DEB78091A3009091D1
:102BB000A400009729F0E091A300F091A4000995EA
:102BC000CF91DF91FF91EF91BF91AF919F918F9145
:102BD0007F916F915F914F913F912F910F900FBE19
:102BE0000F901F9018951F920F920FB60F921124FD
:102BF0002F933F934F935F936F937F938F939F9305
:102C0000AF93BF93EF93FF93DF93CF93CDB7DEB72F
:102C100080919F009091A000009729F0E0919F0083
:102C2000F091A0000995CF91DF91FF91EF91BF91B5
:102C3000AF919F918F917F916F915F914F913F9154
:102C40002F910F900FBE0F901F9018951F920F920B
:102C50000FB60F9211242F933F934F935F936F936F
:102C60007F938F939F93AF93BF93EF93FF93DF93E4
:102C7000CF93CDB7DEB780919D0090919E000097D5
:102C800029F0E0919D00F0919E000995CF91DF9190
:102C9000FF91EF91BF91AF919F918F917F916F9134
:102CA0005F914F913F912F910F900FBE0F901F900A
:102CB00018951F920F920FB60F9211242F933F93E6
:102CC0004F935F936F937F938F939F93AF93BF9334
:102CD000EF93FF93DF93CF93CDB7DEB780919B0047
:102CE00090919C00009729F0E0919B00F0919C004E
:102CF0000995CF91DF91FF91EF91BF91AF919F9196
:102D00008F917F916F915F914F913F912F910F9094
:102D10000FBE0F901F901895DF93CF93CDB7DEB7FE
:102D2000AFE5B0E0EFE5F0E0808180688C9381E072
:102D3000CF91DF910895DF93CF93CDB7DEB7AFE5A5
:102D4000B0E0EFE5F0E080818F778C9381E0CF9168
:102D5000DF910895DF93CF93CDB7DEB72B970FB6F2
:102D6000F894DEBF0FBECDBF8A836B8381E0898379
:102D70008A81833008F007C18B81843008F003C159
:102D80008A81282F30E03B872A878A859B8581307E
:102D9000910509F46DC02A853B852230310509F47F
:102DA000C9C08A859B85009709F0EEC0ABE5B0E00D
:102DB000EBE5F0E0808180648C938B81282F30E0FC
:102DC00039872887888599858130910521F1288563
:102DD0003985223031052CF488859985009761F07A
:102DE000D3C0288539852230310521F18885998520
:102DF0008330910571F1C8C0A5E5B0E0E5E5F0E0EC
:102E000080818E7F8C93A5E5B0E0E5E5F0E08081E0
:102E10008D7F8C93B9C0A5E5B0E0E5E5F0E0808159
:102E200081608C93A5E5B0E0E5E5F0E080818D7FE1
:102E30008C93AAC0A5E5B0E0E5E5F0E080818E7F47
:102E40008C93A5E5B0E0E5E5F0E0808182608C93AD
:102E50009BC0A5E5B0E0E5E5F0E0808181608C9362
:102E6000A5E5B0E0E5E5F0E0808182608C938CC060
:102E7000ABE5B0E0EBE5F0E0808180688C938B817E
:102E8000282F30E03F832E838E819F8181309105F2
:102E900021F12E813F81223031052CF48E819F81DA
:102EA000009761F071C02E813F812230310521F100
:102EB0008E819F818330910571F166C0A5E5B0E0F8
:102EC000E5E5F0E080818B7F8C93A5E5B0E0E5E55A
:102ED000F0E08081877F8C9357C0A5E5B0E0E5E501
:102EE000F0E0808184608C93A5E5B0E0E5E5F0E05A
:102EF0008081877F8C9348C0A5E5B0E0E5E5F0E0F0
:102F000080818B7F8C93A5E5B0E0E5E5F0E08081E2
:102F100088608C9339C0A5E5B0E0E5E5F0E08081FC
:102F200084608C93A5E5B0E0E5E5F0E08081886001
:102F30008C932AC0ABE5B0E0EBE5F0E080818062E5
:102F40008C938B81282F30E03D832C838C819D8155
:102F50008230910531F02C813D812330310549F0DB
:102F600010C0A4E5B0E0E4E5F0E080818F7B8C93B5
:102F70000BC0A4E5B0E0E4E5F0E0808180648C93D0
:102F800003C0198201C0198289812B960FB6F8946B
:102F9000DEBF0FBECDBFCF91DF910895DF93CF93FA
:102FA00000D000D0CDB7DEB78A8381E089838A81E3
:102FB000833058F58A81282F30E03C832B838B8126
:102FC0009C818130910589F02B813C812230310533
:102FD000A1F08B819C810097C9F4ABE5B0E0EBE5F3
:102FE000F0E080818F7B8C9311C0ABE5B0E0EBE526
:102FF000F0E080818F778C9309C0ABE5B0E0EBE522
:10300000F0E080818F7D8C9301C0198289810F90BF
:103010000F900F900F90CF91DF910895DF93CF9392
:10302000CDB7DEB72B970FB6F894DEBF0FBECDBF7E
:103030008A836B8381E089838A81833008F0F2C0C0
:103040008B81843008F0EEC08A81282F30E03B87E6
:103050002A878A859B858130910509F466C02A8577
:103060003B852230310509F4BBC08A859B850097DA
:1030700009F0D9C08B81282F30E0398728878885CF
:1030800099858130910521F12885398522303105D6
:103090002CF488859985009761F0C5C0288539850D
:1030A0002230310521F1888599858330910571F1B0
:1030B000BAC0A5E5B0E0E5E5F0E080818E7F8C93B5
:1030C000A5E5B0E0E5E5F0E080818D7F8C93ABC0B5
:1030D000A5E5B0E0E5E5F0E0808181608C93A5E5B1
:1030E000B0E0E5E5F0E080818D7F8C939CC0A5E5A4
:1030F000B0E0E5E5F0E080818E7F8C93A5E5B0E05F
:10310000E5E5F0E0808182608C938DC0A5E5B0E0BC
:10311000E5E5F0E0808181608C93A5E5B0E0E5E530
:10312000F0E0808182608C937EC08B81282F30E01C
:103130003F832E838E819F818130910521F12E81E5
:103140003F81223031052CF48E819F81009761F000
:103150006AC02E813F812230310521F18E819F810D
:103160008330910571F15FC0A5E5B0E0E5E5F0E0E1
:1031700080818B7F8C93A5E5B0E0E5E5F0E0808170
:10318000877F8C9350C0A5E5B0E0E5E5F0E0808155
:1031900084608C93A5E5B0E0E5E5F0E08081877F71
:1031A0008C9341C0A5E5B0E0E5E5F0E080818B7F40
:1031B0008C93A5E5B0E0E5E5F0E0808188608C9334
:1031C00032C0A5E5B0E0E5E5F0E0808184608C9355
:1031D000A5E5B0E0E5E5F0E0808188608C9323C050
:1031E0008B81282F30E03D832C838C819D81823020
:1031F000910531F02C813D812330310549F010C01B
:10320000A4E5B0E0E4E5F0E080818F7B8C930BC017
:10321000A4E5B0E0E4E5F0E0808180648C9303C035
:10322000198201C0198289812B960FB6F894DEBFEE
:103230000FBECDBFCF91DF910895DF93CF9300D024
:1032400000D0CDB7DEB79B838A836C8381E089830E
:103250008A819B81009781F08C81833068F48C8116
:10326000882F90E0880F991FFC01E955FF4F8A8154
:103270009B819183808301C0198289810F900F9077
:103280000F900F90CF91DF9108951F920F920FB67C
:103290000F9211242F933F934F935F936F937F93DC
:1032A0008F939F93AF93BF93EF93FF93DF93CF934E
:1032B000CDB7DEB78091A7009091A800009729F0C4
:1032C000E091A700F091A8000995CF91DF91FF91BF
:1032D000EF91BF91AF919F918F917F916F915F918E
:1032E0004F913F912F910F900FBE0F901F90189507
:1032F0001F920F920FB60F9211242F933F934F936B
:103300005F936F937F938F939F93AF93BF93EF934D
:10331000FF93DF93CF93CDB7DEB78091A900909153
:10332000AA00009729F0E091A900F091AA00099560
:10333000CF91DF91FF91EF91BF91AF919F918F91CD
:103340007F916F915F914F913F912F910F900FBEA1
:103350000F901F9018951F920F920FB60F92112485
:103360002F933F934F935F936F937F938F939F938D
:10337000AF93BF93EF93FF93DF93CF93CDB7DEB7B8
:103380008091AB009091AC00009729F0E091AB00E8
:10339000F091AC000995CF91DF91FF91EF91BF9132
:1033A000AF919F918F917F916F915F914F913F91DD
:1033B0002F910F900FBE0F901F901895DF93CF9312
:1033C000CDB7DEB7EAE3F0E08FE78083E7E3F0E034
:1033D0008DEF8083E4E3F0E083E18083E1E3F0E0DC
:1033E0001082EBE3F0E01082E8E3F0E084EF80830A
:1033F000E5E3F0E01082E2E3F0E08CE3808381E03B
:10340000CF91DF910895DF93CF93CDB7DEB72E979D
:103410000FB6F894DEBF0FBECDBF8A836B834C839B
:1034200081E089838A81843008F00CC18B818830E7
:1034300008F008C18C81813021F08C81882309F04B
:1034400001C18A81282F30E03E872D878D859E859A
:103450008130910509F44FC02D853E85223031051C
:103460002CF48D859E85009771F0EDC02D853E85ED
:103470002230310509F477C08D859E858330910512
:1034800009F4A9C0E0C08C81282F30E03C872B874D
:103490008B859C850097D1F02B853C8521303105AB
:1034A00009F0D1C0AAE3B0E0EAE3F0E08081482F60
:1034B0008B81282F30E081E090E0022E02C0880F3F
:1034C000991F0A94E2F7842B8C93BDC0AAE3B0E065
:1034D000EAE3F0E08081482F8B81282F30E081E003
:1034E00090E0022E02C0880F991F0A94E2F780959F
:1034F00084238C93A8C08C81282F30E03A872987B9
:1035000089859A850097D1F029853A852130310542
:1035100009F099C0A7E3B0E0E7E3F0E08081482F2D
:103520008B81282F30E081E090E0022E02C0880FCE
:10353000991F0A94E2F7842B8C9385C0A7E3B0E02F
:10354000E7E3F0E08081482F8B81282F30E081E095
:1035500090E0022E02C0880F991F0A94E2F780952E
:1035600084238C9370C08C81282F30E038872F8380
:103570008F8198850097D1F02F81388521303105D2
:1035800009F061C0A4E3B0E0E4E3F0E08081482FFB
:103590008B81282F30E081E090E0022E02C0880F5E
:1035A000991F0A94E2F7842B8C934DC0A4E3B0E0FA
:1035B000E4E3F0E08081482F8B81282F30E081E028
:1035C00090E0022E02C0880F991F0A94E2F78095BE
:1035D00084238C9338C08C81282F30E03E832D8348
:1035E0008D819E810097C9F02D813E81213031056A
:1035F00051F5A1E3B0E0E1E3F0E08081482F8B8159
:10360000282F30E081E090E0022E02C0880F991F41
:103610000A94E2F7842B8C9316C0A1E3B0E0E1E3B7
:10362000F0E08081482F8B81282F30E081E090E00E
:10363000022E02C0880F991F0A94E2F78095842316
:103640008C9301C0198289812E960FB6F894DEBF43
:103650000FBECDBFCF91DF910895DF93CF93CDB74C
:10366000DEB72E970FB6F894DEBF0FBECDBF8A83AC
:103670006B834C8381E089838A81843008F00CC19C
:103680008B81883008F008C18C81813021F08C81D9
:10369000882309F001C18A81282F30E03E872D87D9
:1036A0008D859E858130910509F44FC02D853E851D
:1036B000223031052CF48D859E85009771F0EDC088
:1036C0002D853E852230310509F477C08D859E8594
:1036D0008330910509F4A9C0E0C08C81282F30E027
:1036E0003C872B878B859C850097D1F02B853C856B
:1036F0002130310509F0D1C0ABE3B0E0EBE3F0E0FD
:103700008081482F8B81282F30E081E090E0022ECD
:1037100002C0880F991F0A94E2F7842B8C93BDC0D6
:10372000ABE3B0E0EBE3F0E08081482F8B81282F02
:1037300030E081E090E0022E02C0880F991F0A94C9
:10374000E2F7809584238C93A8C08C81282F30E0E9
:103750003A87298789859A850097D1F029853A8506
:103760002130310509F099C0A8E3B0E0E8E3F0E0CA
:103770008081482F8B81282F30E081E090E0022E5D
:1037800002C0880F991F0A94E2F7842B8C9385C09E
:10379000A8E3B0E0E8E3F0E08081482F8B81282F98
:1037A00030E081E090E0022E02C0880F991F0A9459
:1037B000E2F7809584238C9370C08C81282F30E0B1
:1037C00038872F838F8198850097D1F02F81388596
:1037D0002130310509F061C0A5E3B0E0E5E3F0E098
:1037E0008081482F8B81282F30E081E090E0022EED
:1037F00002C0880F991F0A94E2F7842B8C934DC066
:10380000A5E3B0E0E5E3F0E08081482F8B81282F2D
:1038100030E081E090E0022E02C0880F991F0A94E8
:10382000E2F7809584238C9338C08C81282F30E078
:103830003E832D838D819E810097C9F02D813E812D
:103840002130310551F5A2E3B0E0E2E3F0E0808100
:10385000482F8B81282F30E081E090E0022E02C0BB
:10386000880F991F0A94E2F7842B8C9316C0A2E369
:10387000B0E0E2E3F0E08081482F8B81282F30E038
:1038800081E090E0022E02C0880F991F0A94E2F7AF
:10389000809584238C9301C0198289812E960FB65E
:1038A000F894DEBF0FBECDBFCF91DF910895DF93B7
:1038B000CF93CDB7DEB727970FB6F894DEBF0FBE14
:1038C000CDBF8A836B835D834C8381E089838A814A
:1038D000843008F07AC08B81883008F076C08C8103
:1038E0009D81009709F471C08A81282F30E03F83C1
:1038F0002E834E815F814130510559F18E819F8128
:103900008230910534F42E813F812115310569F013
:103910005DC04E815F814230510579F18E819F817A
:103920008330910509F43DC051C0E9E3F0E08081A6
:10393000282F30E08B81882F90E0A90102C0559597
:1039400047958A95E2F7CA018170EC81FD818083F9
:103950003DC0E6E3F0E08081282F30E08B81882FA6
:1039600090E0A90102C0559547958A95E2F7CA01F2
:103970008170EC81FD81808329C0E3E3F0E08081E8
:10398000282F30E08B81882F90E0A90102C0559547
:1039900047958A95E2F7CA018170EC81FD818083A9
:1039A00015C0E0E3F0E08081282F30E08B81882F84
:1039B00090E0A90102C0559547958A95E2F7CA01A2
:1039C0008170EC81FD81808301C0198289812796F5
:1039D0000FB6F894DEBF0FBECDBFCF91DF91089533
:1039E000DF93CF93CDB7DEB72D970FB6F894DEBF38
:1039F0000FBECDBF8A836B8381E089838A81843047
:103A000008F084C08B81813021F08B81882309F0FC
:103A10007DC08A81282F30E03D872C878C859D854D
:103A20008130910571F12C853D85223031052CF4D2
:103A30008C859D85009769F06AC02C853D85223074
:103A40003105B1F18C859D858330910509F447C01E
:103A50005EC08B81282F30E03B872A878A859B8533
:103A6000009759F02A853B852130310509F04FC078
:103A7000EAE3F0E08FEF80834AC0EAE3F0E01082EF
:103A800046C08B81282F30E0398728878885998523
:103A9000009751F02885398521303105C1F5E7E3DC
:103AA000F0E08FEF808333C0E7E3F0E010822FC0B7
:103AB0008B81282F30E03F832E838E819F8100975A
:103AC00051F02E813F812130310509F5E4E3F0E02A
:103AD0008FEF80831CC0E4E3F0E0108218C08B817C
:103AE000282F30E03D832C838C819D81009751F0FD
:103AF0002C813D812130310551F4E1E3F0E08FEF7D
:103B0000808305C0E1E3F0E0108201C01982898161
:103B10002D960FB6F894DEBF0FBECDBFCF91DF91CB
:103B20000895DF93CF9300D000D00F92CDB7DEB7CA
:103B30008A836B8381E089838A81843098F58A81C6
:103B4000282F30E03D832C838C819D81813091052D
:103B5000D1F02C813D81223031052CF48C819D8166
:103B6000009761F020C02C813D812230310581F029
:103B70008C819D818330910581F015C0EBE3F0E0ED
:103B80008B81808310C0E8E3F0E08B8180830BC0E1
:103B9000E5E3F0E08B81808306C0E2E3F0E08B8117
:103BA000808301C0198289810F900F900F900F9030
:103BB0000F90CF91DF910895DF93CF9300D000D085
:103BC00000D0CDB7DEB78A837C836B8381E08983A5
:103BD0008A81843008F03FC08B819C810097D9F1A5
:103BE0008A81282F30E03E832D838D819E81813014
:103BF0009105E1F02D813E81223031052CF48D813B
:103C00009E81009761F028C02D813E8122303105D0
:103C1000A1F08D819E8183309105B1F01DC0E9E353
:103C2000F0E08081EB81FC81808316C0E6E3F0E068
:103C30008081EB81FC8180830FC0E3E3F0E0808131
:103C4000EB81FC81808308C0E0E3F0E08081EB81C0
:103C5000FC81808301C01982898126960FB6F89471
:103C6000DEBF0FBECDBFCF91DF910895DF93CF931D
:103C700000D000D00F92CDB7DEB78A836B8381E08E
:103C800089838A81843008F073C08B81883008F082
:103C90006FC08A81282F30E03D832C838C819D81E9
:103CA0008130910549F12C813D81223031052CF480
:103CB0008C819D81009761F05CC02C813D81223018
:103CC000310571F18C819D8183309105E9F151C0FD
:103CD000ABE3B0E0EBE3F0E08081482F8B81282F4D
:103CE00030E081E090E0022E02C0880F991F0A9414
:103CF000E2F784278C933DC0A8E3B0E0E8E3F0E06E
:103D00008081482F8B81282F30E081E090E0022EC7
:103D100002C0880F991F0A94E2F784278C9329C068
:103D2000A5E3B0E0E5E3F0E08081482F8B81282F08
:103D300030E081E090E0022E02C0880F991F0A94C3
:103D4000E2F784278C9315C0A2E3B0E0E2E3F0E051
:103D50008081482F8B81282F30E081E090E0022E77
:103D600002C0880F991F0A94E2F784278C9301C040
:103D7000198289810F900F900F900F900F90CF9123
:103D8000DF910895629FD001739FF001829FE00D43
:103D9000F11D649FE00DF11D929FF00D839FF00DCA
:103DA000749FF00D659FF00D9927729FB00DE11D76
:103DB000F91F639FB00DE11DF91FBD01CF01112453
:103DC0000895A1E21A2EAA1BBB1BFD010DC0AA1F5C
:103DD000BB1FEE1FFF1FA217B307E407F50720F074
:103DE000A21BB30BE40BF50B661F771F881F991FEF
:103DF0001A9469F760957095809590959B01AC0138
:103E0000BD01CF0108952F923F924F925F926F9222
:103E10007F928F929F92AF92BF92CF92DF92EF925A
:103E2000FF920F931F93CF93DF93CDB7DEB7CA1BDB
:103E3000DB0B0FB6F894DEBF0FBECDBF09942A8806
:103E4000398848885F846E847D848C849B84AA84AE
:103E5000B984C884DF80EE80FD800C811B81AA813B
:103E6000B981CE0FD11D0FB6F894DEBF0FBECDBF06
:083E7000ED010895F894FFCF65
:103E780054696D6520506572696F64004F4E20501B
:103E88006572696F640000000000000000003738A8
:103E9800392F3435362A3132332D43303D2B040542
:063EA800060702030405F9
:00000001FF
